:1000000000800220C50100004D020000A5B20000E2
:1000100051020000530200005502000050C2FCDFF4
:100020000000000000000000000000005702000077
:1000300059020000000000005B0200005D020000A9
:10004000E5B00000EDB00000F5B00000FDB000002C
:1000500005B100000DB1000015B100001DB1000098
:1000600025B100002DB1000035B100003DB1000008
:1000700045B100004DB1000055B100005DB1000078
:1000800065B100006DB1000075B100007DB10000E8
:1000900085B100008DB1000095B100009DB1000058
:1000A000A5B10000ADB10000B5B10000BDB10000C8
:1000B000C5B10000CDB10000D5B10000DDB1000038
:1000C000E5B10000EDB10000F5B10000FDB10000A8
:1000D00005B200000DB2000015B200001DB2000014
:1000E00025B200002DB2000035B200003DB2000084
:1000F00045B200004DB2000055B200005DB20000F4
:1001000065B200006DB2000075B200007DB2000063
:1001100085B20000412100008DB2000095B20000C0
:100120009DB20000F4090100000000205000000012
:10013000F40901000000000400000000F4090100BF
:100140000000104000000000F4090100000000A0C1
:1001500000000000F4090100000000800000000021
:10016000F40901000000008800000000F40901000B
:100170000000009000000000F40901000000009859
:1001800000000000500000202404000000000004D3
:10019000000000000000104000000000000000A06F
:1001A0000000000000000080000000000000008847
:1001B0000000000000000090000000000000009817
:1001C0000000000010B572B613484FF0380101600E
:1001D00001F0BAFD0D4B07E003F10C049A68596871
:1001E000186800F01BF82346094A9342F4D306E04E
:1001F0001C46596854F8080B00F01FF82346054ABE
:100200009342F5D362B60DF0EFF9FEE7240100004A
:1002100084010000C401000020020040002393423A
:100220000AD210B450F8044B41F8044B0433934203
:10023000F8D35DF8044B70477047002303E00022B9
:1002400040F8042B04338B42F9D37047FEE7FEE7F6
:10025000FEE7FEE7FEE7FEE7FEE7FEE7FEE7FEE776
:1002600080B485B000AF0346FB80FB881B0AFB60AF
:10027000FB68022B0AD8FB88DBB24FF080410122D9
:100280009A40FB68883341F823200AE04FF080430E
:100290000122DA64FB88DBB2054A012101FA03F38B
:1002A000536100BF1437BD465DF8047B704700BF43
:1002B0000000044080B5F6B000AF3D4BC7F8D03128
:1002C000002387F8CF310023C7F8C8310023C7F8CF
:1002D000D4310023C7F8C4310023C7F8C03100234C
:1002E000C7F8BC310023C7F8B8310023C7F8B431D0
:1002F0000023C7F8B0310BF08BFB0BF01CFB01F0B7
:1003000043FD40F20920FFF7ABFF4FF08043D3F8E5
:100310000C354FF0804243F00103C2F80C354FF02A
:1003200080430122DA6401F08DFD40F20320FFF7E3
:1003300097FF1220FFF794FF06F052F906F006FE31
:100340004FF07F400CF0BEFC4FF07F400CF0AEFC55
:1003500006F014F94FF416734FF448720021002090
:1003600006F052FB0023C7F8D43104E0D7F8D431AB
:100370000133C7F8D431D7F8D4310E4A9342F5DDB2
:100380004FF0FF300CF09EFC002006F073FA0A4894
:1003900006F01CFA64224FF49671084806F0F6FC49
:1003A00006F014FE04F084FD322005F0DDFBF9E7D1
:1003B00080F0FA027F1A060040E100001CDC000019
:1003C00080B487B000AF78607B687B611F4BFB60B7
:1003D0007B68B3F1004F33D000233B612BE07B6996
:1003E000002B2CD07B699BB2C3F30B037B817B89F1
:1003F000002B1AD07B897B727B891B0ADBB203F04E
:100400000F03DBB2013B3B727B7A1F2B07D14FF00E
:1004100080430122DA640E4A3B7A136205E07B7A5C
:100420009B00FA6813443A7A1A607B691B0B7B6164
:100430003B6901333B613B69012BD0D900E000BF30
:1004400000BF1C37BD465DF8047B7047800200404A
:100450000000044080B485B000AF03463960FB71F2
:100460001346BB71114BFB60BB79002B06D0FB79A7
:100470009B00FA6813444FF000521A603B68002B4F
:1004800007D1FB799B00FA6813444FF080421A6051
:1004900006E0FB799B00FA6813443A68013A1A6057
:1004A00000BF1437BD465DF8047B70470003004071
:1004B00080B584B000AF78607B682A4A934209D047
:1004C0007B68294A934205D07B68284A934201D031
:1004D000012342E004200AF07EFF4FF08043D3F86E
:1004E00000351B0E03F00103FB607B681D4A93423D
:1004F00028D91F4B786898477B681C4A934211D1D2
:100500004FF08043D3F80025FB681B0603F080738F
:1005100013434FF0804243F0404343F48043C2F81A
:10052000003519E04FF08043D3F80025FB681B0627
:1005300003F0807313434FF0804243F04043C2F80E
:10054000003509E04FF08043D3F800354FF080428A
:1005500023F08043C2F80035002318461037BD460B
:1005600080BD00BF001BB700006CDC0200D8B805DE
:10057000DF91000380B582B000AF00237B604FF0B5
:100580008043D3F8F032072B25D801A252F823F08C
:10059000B1050000B9050000C1050000C905000053
:1005A000D7050000D7050000D7050000D1050000E1
:1005B0000AF039FF786011E000F0D4F878600DE0BF
:1005C00000F0A2F8786009E000F0D8F8786005E063
:1005D00000237B6002E000237B6000BF4FF080437C
:1005E000D3F8B433DBB201337A68B2FBF3F31846C5
:1005F0000837BD4680BD00BF80B582B000AF002384
:100600007B604FF08043D3F8F432032B19D801A25A
:1006100052F823F0250600002D06000035060000E4
:100620003D0600000AF0FFFE78600DE00AF0EAFEE9
:10063000786009E000F068F8786005E000237B60EE
:1006400002E000237B6000BF4FF08043D3F8B0335B
:10065000DBB201337A68B2FBF3F318460837BD46C4
:1006600080BD00BF80B400AF4FF08043D3F8103698
:1006700003F01003002B01D0002300E0024B1846CA
:10068000BD465DF8047B7047001BB70080B400AF27
:10069000024B1846BD465DF8047B7047001BB7004F
:1006A00080B483B000AF4FF08043D3F8103603F42A
:1006B0008013002B01D000231DE04FF08043D3F8BE
:1006C0000835DBB203F01F03DBB20133DBB25B00A2
:1006D000FB714FF08043D3F808355B0903F01F032B
:1006E000084AD35CBB71BB794CF2503203FB02F277
:1006F000FB79B2FBF3F318460C37BD465DF8047B7B
:10070000704700BF28DC000080B483B000AF4FF01A
:100710008043D3F8103603F01003002B07D14FF0BD
:100720008043D3F8003503F08043002B02D100232F
:100730007B600CE04FF08043D3F8003503F4804336
:10074000002B02D0054B7B6001E0054B7B607B6892
:1007500018460C37BD465DF8047B704700D8B805D5
:10076000006CDC0280B400AF034B1B681846BD462A
:100770005DF8047B704700BF5000002080B400AFDC
:10078000034B1B681846BD465DF8047B704700BFED
:100790005400002080B582B000AF78607B68234AA7
:1007A000934203D800200AF093FD3AE07B68204A88
:1007B000934203D801200AF08BFD32E07B681D4A8A
:1007C000934203D802200AF083FD2AE07B681A4A8C
:1007D000934203D803200AF07BFD22E07B68174A8E
:1007E000934203D804200AF073FD1AE07B68144A90
:1007F000934203D805200AF06BFD12E07B68114A92
:10080000934203D806200AF063FD0AE07B680E4A93
:10081000934203D807200AF05BFD02E008200AF0AB
:1008200057FD00BF0837BD4680BD00BF001BB700A5
:1008300000366E01005125020087930300D8B805E9
:10084000000E270700449508007A030A80B584B09B
:1008500000AF78604FF08043D3F8903203F0070385
:10086000012B02D101200AF071FD03F0B9F8162026
:100870000AF09AFD4FF080427B681B68C2F8803511
:100880004FF080427B685B68C2F888357B685B68A4
:100890004FF0804243F48063C2F888354FF08042C5
:1008A0007B689B68C2F88C357B689B684FF0804200
:1008B00043F08003C2F88C354FF080427B68DB68E0
:1008C000C2F890357B68DB684FF0804243F4003318
:1008D000C2F890357B689B6903F00303002B2AD094
:1008E000214BFB604FF08043D3F8903523F4003365
:1008F000BB604FF08042FB68C2F8903516200AF0CA
:100900006AFD4FF08042FB6843F40033C2F8903533
:100910001649482000F0D8F84FF08042BB68C2F872
:1009200090354FF08042BB6843F40033C2F89035F5
:1009300016200AF050FD7B689B6903F00203002B30
:1009400008D000BF0AF0DEFC034683F00103DBB2EF
:10095000002BF7D17B681B69054A136000231846FA
:100960001037BD4680BD00BFD25D04000095BA0AB5
:100970005000002080B584B000AF78604FF0804315
:10098000D3F8983203F00703012B02D101200AF0BB
:10099000DDFC03F025F84FF481700AF005FD4FF0FF
:1009A00080427B681B68C2F8A0354FF080427B68AC
:1009B0005B69C2F8B4357B685B694FF0804243F4F1
:1009C0008003C2F8B4354FF080427B685B68C2F8A0
:1009D000A8357B685B684FF0804243F48063C2F8BF
:1009E000A8354FF080427B689B68C2F8AC357B68C5
:1009F0009B684FF0804243F08003C2F8AC354FF063
:100A000080427B68DB68C2F8B0357B68DB684FF0FA
:100A1000804243F40033C2F8B0354FF080434FF4C6
:100A20000002C3F8B4257B689B6903F00303002B25
:100A30002CD0224BFB604FF08043D3F8903523F449
:100A40000033BB604FF08042FB68C2F890354FF432
:100A500081700AF0C0FC4FF08042FB6843F4003321
:100A6000C2F890351649482000F02EF84FF0804229
:100A7000BB68C2F890354FF08042BB6843F4003346
:100A8000C2F890354FF481700AF0A5FC7B689B6931
:100A900003F00203002B08D000BF0AF045FC034618
:100AA00083F00103DBB2002BF7D17B681B69054A99
:100AB0001360002318461037BD4680BDD25D040088
:100AC0000095BA0A540000202DE9B04384B000AF6D
:100AD000786039607968002902D11D4809F0D6FA9A
:100AE0007968002088468146396800200A46034616
:100AF00002FB09F008FB03F10144A8FB02454B1976
:100B00001D46144A4FF00003204629460CF05FFFB3
:100B100002460B46C7E90223D7E90223012B02D381
:100B20000D4809F0B3FAD7E902014FF000024FF087
:100B30000003820842EA81728B08C7E90223BB687E
:100B400018460AF0BBFC00BF1037BD46BDE8B083B5
:100B500048DC000040420F006CDC000080B586B02D
:100B600000AF7860294A7B6852F8233018460AF0B3
:100B7000B5FC3861254A7B6852F82330396918463C
:100B80000AF0B8FC224A7B6813441B78002B0ED174
:100B9000204A7B6852F823301B68002B2ED01D4A58
:100BA0007B6852F823301B683869984726E0002399
:100BB0007B6120E001227B6902FA03F3FB603A6962
:100BC000FB681340002B13D0124A7B6852F8232095
:100BD0007B699B0013441B68002B09D00D4A7B687E
:100BE00052F823207B699B0013441B68386998479F
:100BF0007B6901337B617B69062BDBD9BFF34F8FA8
:100C000000BF00BF1837BD4680BD00BF94DC0000A8
:100C10006C0000205800002080B500AF054B1B6819
:100C2000002B02D0034B1B689847BFF34F8F00BFC8
:100C300000BF80BD7400002080B500AF054B1B686D
:100C4000002B02D0034B1B689847BFF34F8F00BFA8
:100C500000BF80BD7800002080B485B000AF03469F
:100C6000FB80FB881B0AFB60FB68022B0AD8FB8811
:100C7000DBB24FF0804101229A40FB68883341F893
:100C800023200AE04FF080430122DA64FB88DBB2C4
:100C9000054A012101FA03F3536100BF1437BD4631
:100CA0005DF8047B704700BF0000044080B584B04D
:100CB00000AF78600023FB6006E00B4A7B6893423C
:100CC00006D0FB680133FB60FB68002BF5D000E029
:100CD00000BFFB68002B02D0044809F0D7F9FB687D
:100CE00018461037BD4680BD00100840B8DC000033
:100CF00080B586B000AFF860B9607A600AF03AFC5F
:100D00000346104AA2FB03239A0CBB6802FB03F3C1
:100D10007B617B6903F2E7330B4AA2FB03239B0948
:100D20007B617A697B689A4204D37A697B68D31ABB
:100D30007B6101E000237B617B6918461837BD4663
:100D400080BD00BF83DE1B43D34D621080B582B0EF
:100D500000AF786039607868FFF7A8FF40F207239A
:100D60001846FFF779FF7868FFF7A0FF1B4B18467E
:100D70000AF051FD4FF08043D3F808314FF0804224
:100D800043F08003C2F808314FF08043D3F80831B4
:100D90004FF0804223F08003C2F808313B689A7814
:100DA0004FF08043C3F8B8233B685B78DB004FF01B
:100DB000804203F00803C2F844344FF0804300221D
:100DC000C3F844243B681B781A467B689A607B68AA
:100DD00001221A6000BF0837BD4680BD070002002F
:100DE00080B58AB000AFF860B9607A603B607B681C
:100DF000002B02D1A34809F049F9BB68002B02D1AE
:100E0000A14809F043F93B68042B02D99F4809F037
:100E10003DF97B683B6200237B6235E03B6A002B37
:100E200037D03B6A5B78DB0003F018023B6A1B7A21
:100E3000DB0103F4BF43396A097808461A43F968AD
:100E400000F108035B010B441A603B6A9B881B0995
:100E500003F00703FB613B6A9B7803F00302FB6925
:100E60001B0203F44073396A097808461A43F9688B
:100E700000F108035B010B4404331A603B6A0A3338
:100E80003B627B6A01337B627A6A3B689A42C5D3D4
:100E900000E000BFBB681B7803F00302FB689A62A6
:100EA000BB689B6801221946F868FFF721FF0346DB
:100EB00003F00F02FB681A63BB68DB680122194666
:100EC000F868FFF715FF034603F00F02FB685A634B
:100ED000BB681B6901221946F868FFF709FF034642
:100EE00003F00F02FB689A63BB685B690122194635
:100EF000F868FFF7FDFE034603F00F02FB68DA63B4
:100F0000FB6805221A64FB6803225A64FB6803220B
:100F10009A64BB685B6A01221946F868FFF7E8FE2D
:100F2000034603F01F02FB68DA64BB689B6A012278
:100F30001946F868FFF7DCFE034603F01F02FB6862
:100F40001A65FB6803225A65BB6893F83030002BA2
:100F500006D0BB6893F83030013B03F00F0300E08C
:100F60000023FA6893654A496420FFF7ADFDFB68EA
:100F700040F283121A6246496420FFF7A5FDFB6820
:100F800040F203121A62FB6802225A624049322080
:100F9000FFF79AFDBB685B6800221946F868FFF707
:100FA000A7FE03461A09FB685A62FB6883221A628D
:100FB0007B683B6200237B6220E03B6A002B22D0EF
:100FC0003B6A1B7A18460AF0F1FAB8613B6A1B7853
:100FD0001A46304B53F822203B6A9B8823F4C041C9
:100FE000BB6901FA03F313437B617B691B683B61B7
:100FF0003B6A0A333B627B6A01337B627A6A3B68F5
:101000009A42DAD300E000BF7B685B78002B30D0D7
:10101000FB6883221A627B683B6200237B6222E0CA
:101020003B6A002B24D03B6A1B7A18460AF0BEFAB2
:10103000B8613B6A1B781A46164B53F822203B6A6C
:10104000DB8823F4C04343F48041BB6901FA03F316
:1010500013437B617B691B683B613B6A0A333B62DC
:101060007B6A01337B627A6A3B689A42D8D300E09C
:1010700000BFFB6800221A627B683B6200237B6230
:1010800025E000BFECDC00000CDD00002CDD0000E2
:101090000095BA0AA8DC00003B6A002B1CD03B6A12
:1010A0001B78FA6808335B0113441B683A6A1278AC
:1010B000104643F40022F96800F108035B010B4479
:1010C0001A603B6A0A333B627B6A01337B627A6A4D
:1010D0003B689A42E0D300E000BF00BF2837BD461E
:1010E00080BD00BF80B485B000AF0346FB80FB88A5
:1010F0001B0AFB60FB68022B0AD8FB88DBB24FF0AF
:10110000804101229A40FB68883341F823200AE09D
:101110004FF080430122DA64FB88DBB2054A0121EB
:1011200001FA03F3536100BF1437BD465DF8047B39
:10113000704700BF0000044080B584B000AF786005
:101140000023FB6006E00B4A7B68934206D0FB68F5
:101150000133FB60FB68002BF5D000E000BFFB68AB
:10116000002B02D0044808F091FFFB6818461037A6
:10117000BD4680BD0030084064DD000080B487B00B
:1011800000AFF860B9607A607B6800221A60FB6883
:101190001B685A08BB681A44FB681B68B2FBF3F370
:1011A0003B613B69012B0DD8FB6893F82130202B64
:1011B00006D100233B617B684FF080621A603BE000
:1011C00000237DE03B69023B3B613B691F2B01D95A
:1011D000002375E0FB6893F82130002B02D13B69B6
:1011E000002B27D0FB6893F82130802B02D13B697C
:1011F000032B1FD9FB6893F82130102B02D13B69D8
:10120000012B17D9FB6893F82130502B02D13B6991
:10121000072B0FD9FB6893F82130902B02D13B6943
:10122000072B07D9FB6893F82130D02B04D13B69F9
:101230000D2B01D8002343E0FB6893F8213003F025
:101240002003002B04D0FB689B88013BFB8225E038
:10125000FB6893F8213003F01003002B14D0FB68D7
:1012600093F8213003F04003002B06D0FB689B88E5
:10127000DB089BB2013BFB8210E0FB689B889B086C
:101280009BB2013BFB8209E0FB689B881A46134630
:101290005B001344DB089BB2013BFB827B681A684E
:1012A000FB8A1904094B0B40396901F01F003969A9
:1012B0004909C90601430B431A437B681A6001239D
:1012C00018461C37BD465DF8047B70470000FF03DD
:1012D00080B588B000AFF860B9607A60BB68002B59
:1012E00002D1684808F0D2FE7B68002B02D1664824
:1012F00008F0CCFEBB689B8803F00F03002B02D0E4
:10130000624808F0C3FEBB685B6903F00703002B6B
:1013100002D05F4808F0BAFEBB689B6903F0070380
:10132000002B02D05B4808F0B1FE07F114031A4607
:101330007968B868FFF722FF034683F00103DBB248
:10134000002B01D0042398E0F868FFF7F5FEB861A0
:1013500040F202231846FFF7C5FE4FF0021318466D
:101360000AF059FAFB689B6903F49833FB61BB6888
:10137000DB8B1A46BB6893F821301A43BB681B7F8E
:101380005B0003F00E031343FA691343FB61BB6870
:1013900093F82030002B03D0FB6943F48073FB618A
:1013A000FB68FA699A61FB681E229A62FB68012257
:1013B000C3F8242CFB680022DA61FB680022C3F822
:1013C000202CBB689B881B099BB2013B9B00DAB2B7
:1013D000BB689B79013B1B029BB21A43BB68DB795C
:1013E000013B1B0403F47F031A43BB681B7A013BD8
:1013F0001B061A43FB681A60BB685B89013BC3F399
:101400000902BB681B7B013B9B029BB21A43BB6872
:101410005B7B013B1B0403F47F031A43BB689B7B8C
:10142000013B1B061A43FB685A60BB681B8A1A46BD
:10143000BB68DB7B013B9B0103F4F8631A437B69C8
:101440001A43FB689A60BB689B7C002B09D0BB6881
:10145000DB7C013B03F07F0343F48032FB68DA60FE
:1014600002E0FB680022DA60BB685A69FB681A6117
:10147000BB689A69FB685A61002318462037BD464D
:1014800080BD00BF98DD0000B0DD0000D0DD0000B1
:10149000FCDD000034DE000080B584B000AFF860F1
:1014A0000B467A60FB727B6803F00703002B02D0C7
:1014B000084808F0EBFDFB7A002B03D1FB687A6843
:1014C0001A6102E0FB687A685A6100BF1037BD46B6
:1014D00080BD00BF6CDE000080B586B000AF7860D4
:1014E0007B681B0C7B617B689BB23B6101223B6983
:1014F00002FA03F3FB603B691F2B02D9134808F083
:10150000C5FD7B69022B0AD9114AFB68536000BFF5
:101510000F4B1A68FB681340002BF9D011E04FF015
:1015200080417B694833FA6841F8232000BF4FF0BF
:1015300080427B69403352F82320FB681340002B24
:10154000F5D000BF1837BD4680BD00BF94DE000057
:101550000000044080B586B000AF78607B681B0C4B
:101560007B617B689BB23B6101223B6902FA03F31A
:10157000FB603B691F2B02D9144808F087FD7B698B
:10158000022B0BD9124AFB68936000BF104B1A68FC
:10159000FB681340FA689A42F8D012E04FF080419D
:1015A0007B695033FA6841F8232000BF4FF0804236
:1015B0007B69403352F82320FB681340FA689A4253
:1015C000F4D000BF1837BD4680BD00BFB4DE0000B8
:1015D0000000044080B485B000AF0346FB80FB8868
:1015E0001B0AFB60FB68022B0AD8FB88DBB24FF0BA
:1015F000804101229A40FB68883341F823200AE0A9
:101600004FF080430122DA64FB88DBB2054A0121F6
:1016100001FA03F3536100BF1437BD465DF8047B44
:10162000704700BF0000044080B584B000AFF86090
:10163000B9607A60BB68092B02D90B4808F026FD17
:10164000FB68BA68A03253F8322001217B6801FAA6
:1016500003F342EA0301FB68BA68A03243F8321090
:1016600000BF1037BD4680BDD4DE000080B584B019
:1016700000AFF860B9607A60BB68092B02D90C48EA
:1016800008F004FDFA68BB68A033DB0013445A6815
:1016900001217B6801FA03F31A43F968BB68A033A0
:1016A000DB000B445A6000BF1037BD4680BD00BF51
:1016B00020DF000080B584B000AF78600123BB60FC
:1016C0000023FB6006E00C4A7B68934207D0FB686E
:1016D0000133FB60FA68BB689A42F4D300E000BFB4
:1016E000FA68BB689A4202D3044808F0CFFCFB6852
:1016F00018461037BD4680BD005008406CDF000022
:1017000080B584B000AF786039603B68002B02D1AF
:10171000394808F0BBFC7868FFF7CCFF4FF48173C1
:101720001846FFF757FF7868FFF7C4FF334B18469A
:101730000AF071F83B689B78DB0003F078023B68A5
:101740005B785B0003F0060313433A6812781A4390
:101750003B681B7A5B0203F4F0531A437B681A6000
:101760003B68DB781B0103F010023B685B795B018F
:1017700003F4FF53134343F00C027B685A603B6849
:101780001B7883F00103DBB2002B11D07B685A6811
:101790003B681B791B0503F480113B689B795B0553
:1017A00003F0FF530B43134343F440227B685A601A
:1017B0003B68DB791A467B681A65114B00221A6078
:1017C000104B00221A60104B00221A600023FB60AD
:1017D00007E00E4AFB68002142F82310FB68013342
:1017E000FB60FB68092BF4D9094B0A4A1A600023F5
:1017F00018461037BD4680BD98DF0000020001008A
:10180000A4000020A8000020AC0000207C000020E4
:10181000B0000020AD1C000080B582B000AF786041
:101820007B68002B02D1134808F030FC092200210C
:1018300078680BF0E4FE7B6801221A707B68002256
:101840005A707B6800229A707B680022DA707B688D
:1018500000221A717B6800225A717B6800229A71FB
:101860007B680022DA717B680F221A7200BF08378A
:10187000BD4680BDBCDF000080B58EB002AFF86011
:10188000B9603B601346FB71BB68002B02D18848EE
:1018900008F0FCFBBB6B002B02D1864808F0F6FB7E
:1018A0003B68002B02D1844808F0F0FBBB681B7832
:1018B000092B02D9814808F0E9FB00237B62FB6811
:1018C0005B685B09DBB20133BA6BB2FBF3F33B62DB
:1018D0000023BB6100237B61BB689B78002B00F079
:1018E000DF80774B1B6802330A2B00F2D980FB683C
:1018F0001B6843F00102FB681A60FB79012B05D1DC
:10190000FB685B6843F01002FB685A60FB79002BB0
:1019100006D13A6A3B68B2FBF3F3013BBB6205E0D8
:101920003B685B003A6AB2FBF3F3BB62BB689B782F
:101930001A46BB6A02FB03F3624AA2FB03235B095C
:101940007B62BB689B78632B02D9BB6A02337B62E4
:1019500007F118030193002300930023BA6A4FF4A0
:101960008051F86800F0B0F807F1140301930023E8
:10197000009300237A6A4FF48051F86800F0A4F8CD
:10198000BB691A460021F86809F053FFBA69FB6B7E
:101990001A60BB685B78012B40D1FB681A6DBB688D
:1019A0001B78194601238B40DB431A40FB681A65FC
:1019B000FB79002B10D1BB681B781946BB691A460E
:1019C000F868FFF731FEBB681B7819467B691A4639
:1019D000F868FFF74BFE60E0BB681B7819467B692F
:1019E0001A46F868FFF742FEFB685B6DFB61BB6857
:1019F0001B785B00032202FA03F3DB43FA6913400E
:101A0000FB61BB681B785B00012202FA03F3FA69F1
:101A10001343FB61FB68FA695A653EE0FB681A6D87
:101A2000BB681B78194601238B401A43FB681A6573
:101A3000FB79002B10D1BB681B781946BB691A468D
:101A4000F868FFF713FEBB681B7819467B691A46D6
:101A5000F868FFF7E9FD20E0BB681B7819467B6951
:101A60001A46F868FFF7E0FDFB685B6DFB61BB6839
:101A70001B785B00032202FA03F3DB43FA6913408D
:101A8000FB61BB681B785B00012202FA03F3FA6971
:101A90001343FB61FB68FA695A650023FB6201E0AE
:101AA0000123FB62FB6A18463037BD4680BD00BF8C
:101AB000E0DF000008E0000030E0000058E0000037
:101AC000A40000201F85EB5180B489B000AFF860FE
:101AD0007A603B600B467B817B891B0B03F0030321
:101AE0007B617B89FB610023BB616D4B1B68092B0C
:101AF00000F2CD807B69022B0DD13B689B0103F482
:101B00007071674B1B68FA690A43F9686033DB0040
:101B10000B445A60A4E07B69012B4ED1614B1B68DA
:101B2000092B47D85F4B1B6803F00F03FA69134377
:101B3000FB61FB681B6803F00103002B03D197F8DE
:101B40002830002B10D1574B1A687B6899B2FB687C
:101B5000403243F82210534B1A687B6899B2FB68F5
:101B6000803243F8221017E097F828301B0103F069
:101B70001003FA691343FB614A4B1A687B68190426
:101B8000FB68403243F82210464B1A687B68190400
:101B9000FB68803243F82210414B1B68FA686033BF
:101BA000DB001344FA695A603E4B1B6801333D4A1F
:101BB000136055E00123BB6152E03A4B1B68092BCF
:101BC0004CD8384B1B6803F00F023B689B0103F4B1
:101BD00070731343FA691343FB61FB681B6803F0DE
:101BE0000103002B03D197F82830002B10D12D4B87
:101BF0001A687B6899B2FB68403243F82210294B7F
:101C00001A687B6899B2FB68803243F8221017E0AB
:101C100097F828301B0103F01003FA691343FB61A6
:101C2000204B1A687B681904FB68403243F8221085
:101C30001C4B1A687B681904FB68803243F8221039
:101C4000174B1B68FA686033DB001344FA695A606B
:101C5000144B1B680133134A136001E00123BB617D
:101C6000BB69002B15D1104B1B680D4A126801216E
:101C70009940FB68603243F83210094B1A68FB6ADE
:101C80001A60074B1B680133054A136001E001230A
:101C9000BB61BB6918462437BD465DF8047B7047BD
:101CA000A4000020AC000020A800002080B586B071
:101CB00000AF78601A4BD3F8F430FB60184BD3F8C0
:101CC000F030FA681340BB60FB687B6100233B6126
:101CD00018E07B6903F00103002B0AD0114A3B692D
:101CE00052F82330002B04D00E4A3B6952F82330BF
:101CF00098477B695B087B617B69002B06D03B6959
:101D000001333B613B69092BE3D900E000BF044A82
:101D1000BB68C2F8F43000BF1837BD4680BD00BFB5
:101D2000005008407C00002080B500AF044B1B68C9
:101D300004489847BFF34F8F00BF00BF80BD00BF6E
:101D4000B00000200050084080B500AF0C4BD3F825
:101D500088300B4A43F47003C2F88830084B094AB4
:101D60009A604FF080430022C3F804234FF0804371
:101D70003822C3F8202209F088FD00BF80BD00BFD3
:101D800000ED00E00000000080B592B000AF09F067
:101D900083FD78647B6C002B02D1274808F076F92C
:101DA000002387F84030002387F84130022387F86A
:101DB000423001233B7341F684633B6112237B6114
:101DC0002A23BB614323FB6112233B621B4A7B6CCA
:101DD000B2FBF3F30633BB62BA6A7B6913447B62DE
:101DE0003C23FB623C233B6343237B630C23BB63A9
:101DF000022387F83C3000233B7000237B700223D2
:101E0000BB703323BB800023FB800D233B7207F1A3
:101E1000400319460A48FEF799FF3A4607F10C01BC
:101E200001230748FEF7DCFF0121054809F050FDBA
:101E300000BF4837BD4680BDB8E0000000CA9A3BED
:101E40000010084080B588B002AF07F10C031846B7
:101E5000FFF7E2FC07F10C0319460D48FFF750FCB1
:101E600005233B7201237B720523BB72FEF782FBC5
:101E7000024607F108013B1D019300924FF47A736B
:101E800001220348FFF7F8FC00BF1837BD4680BDAC
:101E90000050084080B58EB000AF042009F034FD3A
:101EA0009248FEF78DFA40F2031009F02DFD4FF035
:101EB0008043D3F804354FF0804243F00203C2F868
:101EC00004358B4801F06AFD8948FEF763FC07F191
:101ED0001C0300221A605A609A60DA601A615A6123
:101EE0009A6147F67053FB610B233B6262237B626E
:101EF00042F28D53BB627E4BFB6203237B634FF444
:101F00008270FEF75DFA07F11C031846FEF79EFC8F
:101F10003B4600221A605A609A60DA601A615A6180
:101F20009A6147F640433B602D237B601123BB60E1
:101F300042F62023FB606F4B3B610323BB614FF4F0
:101F40008370FEF73DFA3B461846FEF713FD6A48DC
:101F5000FEF7AEFA002201212020FEF77BFA0122D3
:101F600000212520FEF776FA002264212520FEF7C5
:101F700071FA012200212620FEF76CFA00220221CC
:101F80002620FEF767FA012200212A20FEF762FAD6
:101F9000002219212A20FEF75DFA012200212F20BC
:101FA000FEF758FA002203212F20FEF753FA0122F0
:101FB00000212E20FEF74EFA002201212E20FEF7EE
:101FC00049FA012200210420FEF744FA00220421EC
:101FD0000420FEF73FFA012200210520FEF73AFA1D
:101FE000002201210520FEF735FA012200212D20D3
:101FF000FEF730FA002201212D20FEF72BFA0122F4
:1020000000212C20FEF726FA002201212C20FEF7C9
:1020100021FA3A48FEF7D4F94FF080430122DA64FE
:1020200040F21F20FEF7CCF940F20910FEF7C8F984
:102030004FF48570FEF7C4F940F21E40FEF7C0F978
:102040004FF48670FEF7BCF940F20D10FEF7B8F9B8
:102050004FF48770FEF7B4F940F20F10FEF7B0F9B5
:102060004FF48870FEF7ACF940F21110FEF7A8F9B2
:1020700040F21230FEF7A4F940F21310FEF7A0F977
:102080004FF48A70FEF79CF940F21510FEF798F9AC
:102090004FF44770FEF794F940F21D10FEF790F9E7
:1020A0004FF08043D3F8883323F0FF034FF0804292
:1020B00043F00703C2F888334FF48C70FEF780F9C1
:1020C00040F21B20FEF77CF94FF08043D3F88032BA
:1020D0004FF0804243F00303C2F88032084B044AB9
:1020E0001A6000BF3837BD4680BD00BF0011100028
:1020F00080F5E4090080BB0000D8B805001130006D
:102100000000002080B483B000AF0346FB7197F954
:102110000730002B0BDBFB7903F01F02074997F90F
:1021200007305B09012000FA02F241F8232000BFCA
:102130000C37BD465DF8047B704700BF00E100E04E
:1021400080B582B000AF104809F031FB7860796843
:102150000D4809F040FB7B6803F00803002B0CD00E
:102160000A4B1B68002B08DB084B1B68184604F061
:102170006BFF064B4FF0FF321A60BFF34F8F00BF6B
:1021800000BF0837BD4680BD003008400400002075
:1021900080B588B000AF0023FB610023BB61002342
:1021A0007B61012004F058FF002300221A491B48DC
:1021B00003F05CF84FF416724FF4487100200AF0F7
:1021C000C0FBF8613B1DFA691549184608F00CFF81
:1021D0004FF416724FF4487100200AF0E0FBB8612A
:1021E0003B1DBA690E49184608F0FEFE0D49002055
:1021F0000AF0BFFB78613B1D7A690949184608F06F
:10220000F3FE3B69002B02D0074807F03FFF00BFF9
:102210002037BD4680BD00BFBCE400000CE10000DB
:10222000D4E00000000000A0D8E0000080B58AB033
:1022300000AFF860B9607A6000237B6200233B62E4
:1022400007F11003BA681949184608F0CDFEBB68BB
:10225000012B03D0BB680E2B04D01EE000F07EF8EB
:10226000B8611DE07B683B623B6A1B681A46104BF5
:1022700002FB03F30F4A1344FB61FA6900210E4885
:10228000FFF70AF93B6A1B680C4A136000BF0B4B4F
:102290001B68002BFBDA002303E04FF0FF337B6267
:1022A0007B6A18462837BD4680BD00BFD4E00000D9
:1022B00000983A00000000A0003008400400002010
:1022C00080B586B000AF00237B6100233B61002313
:1022D000FB6000237B6107E00B4A7B69134400220B
:1022E0001A707B6901337B617B69B3F5C83FF3DB0F
:1022F0004FF4C831044803F0A1FE044804F004F987
:1023000000BF1837BD4680BD7804002084E400007B
:1023100080B500AF024809F014FB0346184680BDA3
:102320000080004080B584B000AF78600023FB607F
:10233000094809F006FB0346BB6000BF064809F0E8
:1023400000FB0246BB68D21A7B689A42F6D300BFF4
:1023500000BF1037BD4680BD0080004080B58AB008
:1023600000AF3B1D184609F0B6F9214B7B604FF4D6
:1023700048733B815023BB722823FB7228233B7395
:102380004FF41673FB8103233B7401237B740423F6
:10239000BB744FF4C053BB82164BBB61062387F856
:1023A0002030202387F82530012387F824300023AC
:1023B0007B84FEF721F902463B1D19460E48FEF7C5
:1023C00087FF00210C4809F0E8FA08210A4809F0C3
:1023D000C7F93520FFF796FE074809F0BEFA064810
:1023E00009F0CBFA002318462837BD4680BD00BF50
:1023F00080C3C901000000A00030084080B485B04F
:1024000000AF0346FB80FB881B0AFB60FB68022BC6
:102410000AD8FB88DBB24FF0804101229A40FB686A
:10242000883341F823200AE04FF080430122DA6428
:10243000FB88DBB2054A012101FA03F3536100BFB7
:102440001437BD465DF8047B704700BF00000440B0
:1024500080B5A8B000AF0B20FFF7D0FF0D20FFF72D
:10246000CDFF0E20FFF7CAFF0F20FFF7C7FF102098
:10247000FFF7C4FF1120FFF7C1FF40F20920FFF76B
:10248000BDFF40F20A20FFF7B9FF002387F89C3018
:10249000002387F89D3007F19C030B220021E148BF
:1024A00009F0C9F8002387F89830002387F899309D
:1024B00007F198031D220021DA4809F0BCF8002337
:1024C00087F89430002387F8953007F194031F2292
:1024D0000021D44809F0AFF8002387F8903000239A
:1024E00087F8913007F1900300220121CD4809F0CF
:1024F000A2F8002387F88C30002387F88D3007F18D
:102500008C0316220121C74809F095F8012387F8AA
:102510008830002387F8893007F1880305220221DB
:10252000C04809F088F8002387F88430002387F832
:10253000853007F1840307220221BA4809F07BF8AD
:10254000B94B1B88A7F8803007F180030B220221CA
:10255000B44809F070F8B44B1B88A7F87C3007F139
:102560007C030C220221AF4809F065F8AE4B1B88B2
:10257000A7F8783007F1780312220221A94809F060
:102580005AF8012387F87430002387F8753007F173
:10259000740313220221A34809F04DF8002387F8A1
:1025A0007030002387F8713007F170031422022184
:1025B0009C4809F040F8012387F86C30002387F825
:1025C0006D3007F16C031A220221964809F033F8A6
:1025D000012387F86830002387F8693007F1680322
:1025E0001B2202218F4809F026F88F4B1B88A7F881
:1025F000643007F16403022203218A4809F01BF8C2
:10260000894B1B88A7F8603007F160030322032180
:10261000844809F010F8002387F85C30002387F81D
:102620005D3007F15C03042203217E4809F003F8C2
:10263000012387F85830002387F8593007F15803F1
:102640000A220321774808F0F6FF774B1B88A7F88A
:10265000543007F154030C220321724808F0EBFFB9
:10266000002387F85030002387F8513007F15003DA
:102670000D2203216B4808F0DEFF002387F84C3061
:10268000002387F84D3007F14C030E2203216548E3
:1026900008F0D1FF644B1B88A7F8483007F14803C6
:1026A0000F2203215F4808F0C6FF002387F844305B
:1026B000002387F8453007F14403122203215948CB
:1026C00008F0B9FF012387F84030002387F8413034
:1026D00007F1400313220321524808F0ACFF524B8C
:1026E0001B88BB8707F13C03142203214D4808F0E7
:1026F000A2FF002387F83830002387F8393007F12C
:10270000380317220321474808F095FF012387F873
:102710003430002387F8353007F134031E220321BB
:10272000404808F088FF404B1B883B8607F1300388
:10273000042204213B4808F07EFF002387F82C3058
:10274000002387F82D3007F12C030522042135489A
:1027500008F071FF002387F82830002387F829301C
:1027600007F12803062204212E4808F064FF012304
:1027700087F82430002387F8253007F12403072247
:102780000421284808F057FF002387F82030002351
:1027900087F8213007F120030A220421214808F09C
:1027A0004AFF00233B7700237B7707F11C030D22B0
:1027B00004211C4808F03FFF01233B7600237B7671
:1027C00007F1180311220421164808F034FF0023F2
:1027D0003B7500237B7507F1140312220421114875
:1027E00008F029FF00233B7400237B7407F11003DA
:1027F000162204210B4808F01EFF00233B73002320
:102800007B7307F10C031F220421064808F013FF15
:1028100000233B7200237B7207F10803022205218B
:1028200004E000BF00C0084008E10000BC4808F018
:1028300002FF00233B7100237B713B1D0922052110
:10284000B74808F0F8FE00233B7000237B703B463E
:102850000A220521B24808F0EEFEB24B1B6823F4B1
:10286000877323F00103AF4A43F480731360AD4BC9
:102870005B6823F4877323F00103AA4A43F480734F
:102880005360A84B9B6A23F4877323F00103A54A86
:1028900043F4807343F001039362A24BDB6A23F499
:1028A000877323F001039F4A43F48073D3629D4BE7
:1028B0001B6B23F4877323F001039A4A43F480735C
:1028C00043F001031363974B5B6B23F4877323F08F
:1028D0000103944A43F480735363924B9B6B23F43C
:1028E000877323F001038F4A43F4807393638D4B06
:1028F000DB6B23F49F7323F001038A4A43F4937341
:10290000D363884B1B6C23F4877323F00103854A40
:1029100043F483731364834B5B6C23F4A16323F050
:102920000703804A43F4A06343F0060353647D4BDE
:102930009B6C23F4A16323F007037A4A43F4A0635A
:1029400043F006039364774BDB6C23F4A16323F01D
:102950000703744A43F4A06343F00603D364714B46
:102960009B6823F4A16323F007036E4A43F4A0633A
:1029700043F0060393606B4B1B6D23F4A16323F0BC
:102980000703684A43F4A06343F006031365654BED
:102990005B6D23F4A16323F00703624A43F4A06351
:1029A00043F0060353655F4B9B6D23F4877323F05D
:1029B00001035C4A43F4807393655A4BDB6D23F447
:1029C000877323F00103574A43F48373D365554B50
:1029D0001B6E23F4877323F00103524A43F483737D
:1029E0001366504B5B6E23F4877323F001034D4A4B
:1029F00043F4837353664B4B9B6E23F4877323F02E
:102A00000103484A43F483739366464BDB6E23F419
:102A1000877323F00103434A43F48373D366414B26
:102A20001B6F23F4877323F001033E4A43F483733F
:102A300013673C4B5B6F23F4877323F00103394A20
:102A400043F480735367374BDB6823F4A16323F0AF
:102A50000703344A43F4A06343F00603D360314BC9
:102A60009B6F23F4877323F001032E4A43F4807392
:102A700093672C4BDB6F23F4877323F00103294A00
:102A800043F48073D367274B1B6923F4A16323F0BE
:102A90000703244A43F4A06343F006031361214B68
:102AA0005B6923F4A16323F007031E4A43F4A06388
:102AB00043F0060353611B4B9B6923F4A16323F08E
:102AC0000703184A43F4A06343F006039361154BD0
:102AD000DB6923F4A16323F00703124A43F4A063E4
:102AE00043F00603D3610F4B1B6A23F4A16323F069
:102AF00007030C4A43F4A06343F006031362094B37
:102B00005B6A23F4A16323F00703064A43F4A0633E
:102B100043F006035362034BD3F8803004E000BF58
:102B200000C008400010004023F4877323F0010325
:102B3000DD4A43F48073C2F88030DB4BD3F8843035
:102B400023F4877323F00103D74A43F4807343F0DF
:102B50000103C2F88430D44BD3F8A83023F4A16326
:102B600023F00703D04A43F4A06343F00603C2F8FE
:102B7000A830CD4BD3F8AC3023F4A16323F0070386
:102B8000C94A43F4A06343F00603C2F8AC30C64B15
:102B9000D3F8B03023F4A16323F00703C24A43F40F
:102BA000A06343F00603C2F8B030BF4BD3F8B43093
:102BB00023F4A16323F00703BB4A43F4A06343F06B
:102BC0000603C2F8B430B84BD3F8B83023F4A1638D
:102BD00023F00703B44A43F4A06343F00603C2F8AA
:102BE000B830B14BD3F8BC3023F4A16323F0070312
:102BF000AD4A43F4A06343F00603C2F8BC30AA4BCD
:102C0000D3F8C03023F4A16323F00703A64A43F4AA
:102C1000A06343F00603C2F8C030A34BD3F8C4301E
:102C200023F4A16323F007039F4A43F4A06343F016
:102C30000603C2F8C4309C4BD3F8C83023F4A16318
:102C400023F00703984A43F4A06343F00603C2F855
:102C5000C830954BD3F8CC3023F4A16323F007039D
:102C6000914A43F4A06343F00603C2F8CC308E4B84
:102C7000D3F8883023F4877323F001038A4A43F49E
:102C8000837343F00103C2F88830874BD3F8D03008
:102C900023F4A16323F00703834A43F4A06343F0C2
:102CA0000603C2F8D030804BD3F8D43023F4A163AC
:102CB00023F007037C4A43F4A06343F00603C2F801
:102CC000D430794BD3F8D83023F4877323F0010341
:102CD000754A43F48073C2F8D830734BD3F8DC30B4
:102CE00023F4A16323F007036F4A43F4A06343F086
:102CF0000603C2F8DC306C4BD3F8E03023F4A16358
:102D000023F00703684A43F4A06343F00603C2F8C4
:102D1000E030654BD3F8E43023F4A16323F00703DC
:102D2000614A43F4A06343F00603C2F8E4305E4B0B
:102D3000D3F8E83023F4A16323F007035A4A43F49D
:102D4000A06343F00603C2F8E830574BD3F8EC30E9
:102D500023F4A16323F00703534A43F4A06343F031
:102D60000603C2F8EC30504BD3F8F03023F4A163E3
:102D700023F007034C4A43F4A06343F00603C2F870
:102D8000F030494BD3F8F43023F4A16323F0070368
:102D9000454A43F4A06343F00603C2F8F430424BC3
:102DA000D3F88C3023F4877323F001033E4A43F4B5
:102DB0008073C2F88C303C4BD3F8F83023F4A16315
:102DC00023F00703384A43F4A06343F00603C2F834
:102DD000F830354BD3F8FC3023F4A16323F007031C
:102DE000314A43F4A06343F00603C2F8FC302E4B93
:102DF000D3F8903023F4A16323F007032A4A43F465
:102E0000A06343F00603C2F89030274BD3F8943008
:102E100023F4A16323F00703234A43F4A06343F0A0
:102E20000603C2F89430204BD3F8983023F4A16302
:102E300023F007031C4A43F4A06343F00603C2F8DF
:102E40009830194BD3F89C3023F4A16323F0070387
:102E5000154A43F4A06343F00603C2F89C30124BBA
:102E6000D3F8A03023F4A16323F007030E4A43F400
:102E7000A06343F00603C2F8A0300B4BD3F8A43094
:102E800023F4A16323F00703074A43F4A06343F04C
:102E90000603C2F8A430044BD3F8003123F487733F
:102EA00023F0010302E000BF00100040DC4A43F4BD
:102EB0008173C2F80031DA4BD3F8043123F48773FD
:102EC00023F00103D64A43F48173C2F80431D44B92
:102ED000D3F8283123F4106323F00F03D04A43F4CE
:102EE0008173C2F82831CE4BD3F82C3123F4877389
:102EF00023F00103CA4A43F48073C2F82C31C84B53
:102F0000D3F8303123F4136323F00F03C44A43F49E
:102F10009073C2F83031C24BD3F8343123F4A1633B
:102F200023F00703BE4A43F4A06343F00103C2F851
:102F30003431BB4BD3F8383123F4A16323F00703BA
:102F4000B74A43F4A06343F00103C2F83831B44BED
:102F5000D3F83C3123F4A16323F00703B04A43F4D0
:102F6000A06343F00103C2F83C31AD4BD3F84031CC
:102F700023F4A16323F00703A94A43F4A06343F0B9
:102F80000103C2F84031A64BD3F8443123F48773D0
:102F900023F00103A24A43F4817343F00103C2F812
:102FA00044319F4BD3F8483123F4877323F0010356
:102FB0009B4A43F48073C2F84831994BD3F84C31A3
:102FC00023F4877323F00103954A43F48073C2F816
:102FD0004C31934BD3F8083123F4877323F001036A
:102FE0008F4A43F4807343F00103C2F808318C4BDD
:102FF000D3F8503123F4877323F00103884A43F454
:103000008073C2F85031864BD3F8543123F4A16356
:1030100023F00703824A43F4A06343F00103C2F89C
:1030200054317F4BD3F8583123F4A16323F00703C5
:103030007B4A43F4A06343F00103C2F85831784B54
:10304000D3F85C3123F4A16323F00703744A43F4FB
:10305000A06343F00103C2F85C31714BD3F86031D7
:1030600023F4A16323F007036D4A43F4A06343F004
:103070000103C2F860316A4BD3F8643123F4A163D1
:1030800023F00703664A43F4A06343F00103C2F848
:103090006431634BD3F8683123F4877323F0010361
:1030A0005F4A43F48073C2F868315D4BD3F86C31EA
:1030B00023F4877323F00103594A43F48073C2F861
:1030C0006C31574BD3F8703123F4A16323F007031D
:1030D000534A43F4A06343F00103C2F87031504BEC
:1030E000D3F8743123F4A16323F007034C4A43F46B
:1030F000A06343F00103C2F87431494BD3F80C319B
:1031000023F4506323F00F03454A43F4A06343F0D4
:103110000203C2F80C31424BD3F8783123F4A16397
:1031200023F007033E4A43F4A06343F00103C2F8CF
:1031300078313B4BD3F87C3123F4A16323F00703B0
:10314000374A43F4A06343F00103C2F87C31344BA7
:10315000D3F8103123F4506323F00F03304A43F4C3
:10316000A06343F00203C2F810312D4BD3F81431A1
:1031700023F4877323F00103294A43F48073C2F8D0
:103180001431274BD3F8183123F4506323F00F0385
:10319000234A43F4A06343F00203C2F81831204BE2
:1031A000D3F81C3123F4877323F001031C4A43F442
:1031B0008073C2F81C311A4BD3F8203123F45363C7
:1031C00023F00F03164A43F4A46343F00203C2F84A
:1031D0002031134BD3F8243123F4506323F00F0331
:1031E0000F4A43F4A06343F00203C2F824310C4BAE
:1031F000D3F8803123F4A16323F00703084A43F492
:10320000A06343F00103C2F88031054BD3F8843149
:1032100023F4A16323F00703014A43F4A06301E010
:103220000010004043F00103C2F88431DB4BD3F8B7
:10323000A83123F4877323F00103D84A43F4807341
:10324000C2F8A831D54BD3F8AC3123F4877323F0FF
:103250000103D24A43F4807343F00103C2F8AC3156
:10326000CE4BD3F8B03123F49F7323F00103CB4A44
:1032700043F49073C2F8B031C84BD3F8B43123F49F
:10328000877323F00103C54A43F48073C2F8B43155
:10329000C24BD3F8B83123F4877323F00103BF4A3C
:1032A00043F48073C2F8B831BC4BD3F8BC3123F47B
:1032B000877323F00103B94A43F48073C2F8BC3129
:1032C000B64BD3F8C03123F4877323F00103B34A1C
:1032D00043F4807343F00103C2F8C031AF4BD3F81D
:1032E000C43123F4877323F00103AC4A43F48073A1
:1032F00043F00103C2F8C431A84BD3F8C83123F41A
:10330000877323F00103A54A43F48073C2F8C831E0
:10331000A24BD3F8CC3123F4877323F001039F4AE7
:1033200043F48073C2F8CC319C4BD3F8883123F43A
:10333000877323F00103994A43F48073C2F88831FC
:10334000964BD3F8D03123F4877323F00103934ACB
:1033500043F48073C2F8D031904BD3F8D4318F4A04
:1033600023F49F7323F00103C2F8D4318B4BD3F8BD
:10337000D8318A4A23F49F7323F00103C2F8D8316D
:10338000864BD3F8DC3123F4877323F00103834A9F
:1033900043F48073C2F8DC31804BD3F8E43123F47A
:1033A000A16323F007037D4A43F4A06343F00603BF
:1033B000C2F8E431794BD3F8E83123F4A16323F068
:1033C0000703764A43F4A06343F00603C2F8E831EA
:1033D000724BD3F8EC3123F4A16323F007036F4A57
:1033E00043F4A06343F00603C2F8EC316B4BD3F80F
:1033F000F03123F4A16323F00703684A43F4A06388
:1034000043F00603C2F8F031644BD3F8F43123F4EF
:10341000A16323F00703614A43F4A06343F006036A
:10342000C2F8F4315D4BD3F88C3123F4877323F069
:1034300001035A4A43F48073C2F88C31574BD3F8D6
:10344000F83123F4106323F00F03544A43F48073DC
:10345000C2F8F831514BD3F8FC3123F4877323F0D1
:1034600001034E4A43F48173C2F8FC314B4BD3F84D
:10347000903123F4877323F00103484A43F48073A7
:10348000C2F89031454BD3F8943123F4A16323F073
:103490000703424A43F4A06343F00103C2F89431A6
:1034A0003E4BD3F8983123F4A16323F007033B4A42
:1034B00043F4A06343F00103C2F89831374BD3F8CB
:1034C0009C3123F4A16323F00703344A43F4A0633F
:1034D00043F00103C2F89C31304BD3F8A03123F400
:1034E000A16323F007032D4A43F4A06343F00103D3
:1034F000C2F8A031294BD3F8A43123F4A16323F0FF
:103500000703264A43F4A06343F00103C2F8A43141
:10351000224BD3F8003223F4A16323F007031F4AA0
:1035200043F4A06343F00603C2F800321B4BD3F808
:10353000043223F4A16323F00703184A43F4A06381
:1035400043F00603C2F80432144BD3F8283223F4B4
:10355000877323F00103114A43F48073C2F82832C1
:103560000E4BD3F82C3223F4877323F001030B4A5C
:1035700043F4817343F00103C2F82C32074BD3F8B4
:10358000303223F4877323F00103044A43F4807339
:1035900043F00103C2F8303202E000BF00100040E7
:1035A000DB4BD3F8343223F4877323F00103D84A7A
:1035B00043F48073C2F83432D54BD3F8383223F455
:1035C000877323F00103D24A43F4807343F001036D
:1035D000C2F83832CE4BD3F83C3223F4877323F051
:1035E0000103CB4A43F4817343F00103C2F83C3238
:1035F000C74BD3F8403223F4877323F00103C44A46
:1036000043F4817343F00103C2F84032C04BD3F856
:10361000443223F4877323F00103BD4A43F48073DB
:10362000C2F84432BA4BD3F8483223F4877323F0FC
:103630000103B74A43F48073C2F84832B44BD3F85D
:103640004C3223F4877323F00103B14A43F48073AF
:1036500043F00103C2F84C32AD4BD3F8083223F4E7
:10366000877323F00103AA4A43F48173C2F8083236
:10367000A74BD3F8503223F4877323F00103A44AF5
:1036800043F4807343F00103C2F85032A04BD3F8E7
:10369000543223F4877323F001039D4A43F481736A
:1036A00043F00103C2F85432994BD3F8583223F453
:1036B000877323F00103964A43F48073C2F85832AB
:1036C000934BD3F85C3223F4877323F00103904AC1
:1036D00043F4807343F00103C2F85C328C4BD3F89F
:1036E000603223F4877323F00103894A43F4817322
:1036F00043F00103C2F86032854BD3F8643223F4FF
:10370000536323F00F03824A43F4516343F00303EE
:10371000C2F864327E4BD3F8683223F4506323F04E
:103720000F037B4A43F4A06343F00203C2F86832FC
:10373000774BD3F86C3223F4877323F00103744A78
:1037400043F4807343F00103C2F86C32704BD3F83A
:10375000703223F4877323F001036D4A43F48273BC
:10376000C2F870326A4BD3F8743223F4877323F0B3
:103770000103674A43F48273C2F87432644BD3F88E
:103780000C3223F4877323F00103614A43F48173FD
:10379000C2F80C325E4BD3F8783223F4877323F0EF
:1037A00001035B4A43F4807343F00103C2F87832AB
:1037B000574BD3F87C3223F4877323F00103544A28
:1037C00043F48073C2F87C32514BD3F8103223F4A7
:1037D000877323F001034E4A43F48073C2F810321A
:1037E0004B4BD3F8143223F4877323F00103484A78
:1037F00043F48073C2F81432454BD3F8183223F4E3
:10380000877323F00103424A43F48073C2F81832ED
:103810003F4BD3F81C3223F4877323F001033C4A57
:1038200043F48073C2F81C32394BD3F8203223F4AE
:10383000877323F00103364A43F4817343F0010395
:10384000C2F82032324BD3F8243223F4877323F0AA
:1038500001032F4A43F48173C2F824322C4BD3F86E
:10386000803223F4877323F00103294A43F48273DF
:10387000C2F88032264BD3F8843223F4877323F0C6
:103880000103234A43F48273C2F88432204BD3F8F5
:10389000A83223F4877323F001031D4A43F4807395
:1038A000C2F8A8321A4BD3F8883223F4877323F076
:1038B0000103174A43F48073C2F88832144BD3F8DB
:1038C0008C3223F4877323F00103114A43F480738D
:1038D00043F00103C2F88C320D4BD3F8903223F43D
:1038E000877323F001030A4A43F4807343F0010312
:1038F000C2F89032064BD3F8943223F4877323F046
:103900000103034A43F48173C2F8943202E000BF1A
:1039100000100040204BD3F8983223F4877323F033
:1039200001031D4A43F48173C2F898321A4BD3F84D
:103930009C3223F4877323F00103174A43F4817305
:1039400043F00103C2F89C32134BD3F8A03223F4A6
:10395000877323F00103104A43F4817343F001039A
:10396000C2F8A0320C4BD3F8A43223F4877323F0AF
:103970000103094A43F48073C2F8A4324FF0804334
:10398000D3F820344FF0804243F00103C2F82034D2
:1039900000BFA037BD4680BD001000400D4B9842CF
:1039A0000D4B08D80B220C211A6059609A60DA601E
:1039B0001A615A617047094A904298BF0D214FF031
:1039C0000C0288BF0F2119605A600B229A60D960DF
:1039D000EEE700BF00E1F505000002400095BA0ADD
:1039E0004FF080434FF08062C3F83026024A536D97
:1039F0009B06FCD5704700BF00000240012904D09F
:103A0000032904D183681868704702487047002072
:103A1000704700BFDCE400000139282948D8DFE8FE
:103A200001F0451F1B1D472147474917192347250B
:103A300027474747292B2D334747354747474747B0
:103A400047392F3141473D47474715001A487047CE
:103A50001A4870471A4870471A4870471A48704702
:103A60001A4870471A4870471A4870471A487047F2
:103A70001A4870471A4870471A4870471A487047E2
:103A80001A4870471A4870471A48704703689B687D
:103A9000586B704703689B68D86B704703689B68D6
:103AA000186C704703689B68586C704712487047E1
:103AB0000020704711487047A1BB000089BB00007F
:103AC0008BBC0000E3BC00006FBB000067BC0000C3
:103AD00043BC00002BBC000021BC000017BC000050
:103AE00003BC0000EFBB0000D9BB0000013B00009D
:103AF000B7BB000021BB0000B9BA0000BDBC00008C
:103B00002DE9F84306460F46904607F0F8FFB568E2
:103B1000DDB1474519D0F36808219B6A30469847C4
:103B2000D5E90534AA685C434443E3087AB152F806
:103B3000271052F82840D5F83890B9F1000F0CD072
:103B4000B06942463946C8472C60BDE8F8836C68C6
:103B500003FB074103FB0844EDE7034A20461668D0
:103B60001A46B047F0E700BF080000202DE9F04FEB
:103B70008BB083460193149B0393DDE915300490C9
:103B8000DDE91740082B0290199DDBF8080005922B
:103B900089460EDC002B0FDD013B072B0CD8DFE83C
:103BA00013F00E0055010B0000020B000B000B0080
:103BB0000902102B00F0A6820BB0BDE8F08FC66B97
:103BC000002E51D0A64B1B681B7CDA0700F19F80AA
:103BD000049B1793039B1693019B1593059A029BD5
:103BE000DBF818001493B446234618950BB0BDE8D3
:103BF000F04F6047019B22469919F80744BFDAF855
:103C0000003023F816E0B8F1010804BF5378954856
:103C100006F1010609BFC75C7F0801324FF00808B2
:103C20008E42EAD16DE0DBF810309B689847019B2B
:103C300003EB060C2346F90741BFDAF8001031F810
:103C40001620424021F81620B8F1010804BF5A7826
:103C5000844906F1010609BF8F5C7F0801334FF0EC
:103C600008086645E7D14CE00696069B039A934206
:103C7000A2DADDE90532DBF808A0D5F804E09E18E9
:103C8000029ADAF820304A4403FB0626029B754A62
:103C9000C3F108082378D75C029B1F41704B1B6857
:103CA0001B7C03F00302022AA4D0DB07BBD42B68E1
:103CB0000893DAF800C0019B079443451A4628BFD1
:103CC00042460CEB460016440CEB460A17F0010F77
:103CD000089918BF714620F8021B50454FEA570754
:103CE000F4D1B8EB0208A3EB020308D1079A5D49AF
:103CF00052788F5C079A013207924FF00808002B28
:103D0000DBD1049B1C44069B01330693ADE70023E3
:103D1000FBE7DDE905239A18514B26781B681B7CCD
:103D200013F003030BD0022B4CD0049B1C44069BC6
:103D300001330693069B039A9342EADB3CE7029F1A
:103D4000DDF82080A1464FF0C00AF5B1C7F10303AA
:103D50005800C0F106034AFA03F33340C34041461A
:103D600055F823300992584607F063FE0137079B48
:103D7000099A042F08F1010802BF99F80160002791
:103D800009F101099845E1D1CFE7C7F103004000EF
:103D9000C0F106034AFA03F33340C3404146584694
:103DA0000992013707F045FE079B099A042F08F195
:103DB000010802BF99F80160002709F1010998453F
:103DC000E3D1B2E7DDE90187A1464FF0C00AFDB1BA
:103DD000079BA3EB0801C7F103035800C0F10603DA
:103DE0004AFA03F33340C34006D055F82330099212
:103DF000584607F01EFE099A0137042F02BF99F8B2
:103E00000160002709F10109B8F10108E0D18CE750
:103E1000079BA3EB0801C7F103035800C0F1060399
:103E20004AFA03F33340C34004D05846099207F0DE
:103E300000FE099A0137042F02BF99F8016000279C
:103E400009F10109B8F10108E2D16EE700230693F8
:103E5000029B019ACB180893134407936AE700BFAB
:103E60003800002018060100DDE905239A18A44B4C
:103E700026781B681B7C13F003030BD0022B4CD05D
:103E8000049B1C44069B01330693069B039A9342B2
:103E9000EADB91E6029FDDF82080A1464FF0F00AB0
:103EA000F5B1C7F101039800C0F104034AFA03F326
:103EB0003340C340414655F823300992584607F035
:103EC000B8FD0137079B099A022F08F1010802BFCC
:103ED00099F80160002709F101099845E1D1CFE780
:103EE000C7F101008000C0F104034AFA03F3334034
:103EF000C340414658460992013707F09AFD079B97
:103F0000099A022F08F1010802BF99F80160002701
:103F100009F101099845E3D1B2E7DDE90187A1463E
:103F20004FF0F00AFDB1079BA3EB0801C7F10103B5
:103F30009800C0F104034AFA03F33340C34006D0AB
:103F400055F823300992584607F073FD099A013756
:103F5000022F02BF99F80160002709F10109B8F1A9
:103F60000108E0D18CE7079BA3EB0801C7F101032F
:103F70009800C0F104034AFA03F33340C34004D06D
:103F80005846099207F055FD099A0137022F02BFE2
:103F900099F80160002709F10109B8F10108E2D19F
:103FA0006EE700230693029B019ACB1808931344F3
:103FB00007936AE7524B066C1F6846B33B7C9A072F
:103FC00000F19980002D00F09880049B1693039BCC
:103FD0001593059A019BDBF818001493B446234609
:103FE00017950BB0BDE8F04F60476DB1059B026AB5
:103FF000334402FB0393026802EB43033A7C12F062
:10400000030208D0022A74D0049B01361C44039B8F
:104010009E42EADBD0E5DDF804E0A446BEF1070FDE
:104020001A46614603F110030CF1080C22DCBEF1C4
:10403000030F13DD0B7855F8233013804B7855F8B8
:10404000233053808B7855F823309380CB7855F804
:104050002330D380AEF1040E04310832013902EB73
:104060004E0E9645D0D011F8013F55F8233022F876
:10407000023BF6E71CF8082C55F8222023F8102CF8
:104080001CF8072C55F8222023F80E2C1CF8062CBF
:1040900055F8222023F80C2C1CF8052C55F822206A
:1040A00023F80A2C1CF8042C55F8222023F8082C9D
:1040B0001CF8032C55F8222023F8062C1CF8022C9F
:1040C00055F8222023F8042C1CF8012C55F8222046
:1040D00023F8022CAEF1080EA0E7A15C19B155F847
:1040E000211023F8121001320199891A0029F4DCF9
:1040F0008AE70022F8E7002689E72E4687E700BF17
:1041000038000020C56C25B1164B1B681B7CDB07F3
:104110001AD5019B144F4FEA43080026039B9E4289
:10412000BFF64AADDBF80820059B106A3D683344B2
:1041300000FB03931068214600EB43004246A8476A
:10414000049B01361C44E9E7049B1693039B1593DB
:10415000DBF81800019B1493AC4623460BB0BDE876
:10416000F04F604738000020080000202DE9F34799
:104170006E4DD0F808A0D5F80080DAF83460D8F891
:104180003C50DDF82890D5F800C09E4636B1CDE908
:10419000009C8069B04702B0BDE8F087DAF82030B3
:1041A00048085E1006FB0203DAF8000000EB83000B
:1041B00098F81030AEEB010EA9EB0202DB070EF10E
:1041C000010502F1010701F001013ED549B1DFF817
:1041D00060C1B1003C46034614BB01FB07017546B4
:1041E0000430012D0FDDAB1E5B086FF0030C724332
:1041F000013300EB82020CFB06FC9B003C460846A8
:10420000ACB905F00105012DC5D1B3004FF6FF7122
:10421000002FC0D002684A400260013F1844F7E70F
:104220001D6885EA0C051D60013C0B44D4E7013C88
:1042300028469646DEF800100238C94301284EF899
:10424000041BF7DCD0186244DAE74FEA0C4841B1AE
:10425000B1003D460446002D40D101FB07017546E3
:1042600004300F2D08EB0C0314DD06FB02F4A5F15E
:10427000100800EB84004FEA18146FF0030E0134AD
:104280000EFB06FE6401B946B9F1000F2DD105F011
:104290000F050846012D11DDAC1E64086FF0030EFA
:1042A0007243013400EB82020EFB06FEA400B84606
:1042B0000846B8F1000F2DD105F00105012D7FF45E
:1042C0006AAF1B49B300002F3FF465AF02680A4094
:1042D0004CEA02020260013F1844F4E7238843EAF3
:1042E00008032360013D0C44B5E709F1FF3900F1F3
:1042F0002001C246BAF1100A41E9083341E9063308
:1043000041E9043341E9023301F12001F2D50119F9
:104310007044B9E708F1FF382946104602390129EF
:1043200040F8043BFADC10197244C2E73800002060
:104330000000FFFF184B194870B500241C70184B83
:10434000184D1C60184B1C60184B1C60184B1C60EF
:10435000184B1C60184B1C60184B1C60184B1C60E1
:10436000184B21461C6018222B689847164B17489B
:104370001C60174B21461C6008222B6898472B684D
:1043800014482146082298472B68134821460822E2
:10439000BDE87040184700BF6D040020F400002005
:1043A0000C0100200C000020EC000020DC000020AC
:1043B000D4000020CC000020E0000020C00000203D
:1043C000BC00002010010020E80000201C0100209B
:1043D000D8000020140100202401002010B504465C
:1043E00001F0ECFD836A054A13F4803F2046044B3C
:1043F000BDE8104008BF1346184700BFF14C00004D
:104400008DCF00002DE9F3411F4E33680546586CEF
:1044100001F0DEFD0090284601F0DAFD0146019032
:104420000098083008F018FC044630B30199009A4F
:104430003368164C083201F10800D3E9128708F0FE
:10444000E6F9684601F0D2FD019A3368B2F900102E
:10445000B2F902209964DA6401A8256001F0C6FD72
:104460002846FFF7BBFF002323603368C3E91287A8
:104470000124204602B0BDE8F081684601F0B6FD97
:1044800001A801F0B3FDF4E738000020E0000020AF
:1044900037B5044601F09CFD836A019023F4FF6365
:1044A00023F006031B051B0D012B05D001A801F00D
:1044B0009DFD2046FFF792FF134B1B6843B120463A
:1044C00007F0A4FD204601F079FD8569046A9DB9D5
:1044D00003B030BD204601F071FD836A03F0030391
:1044E000032B02D12046FFF78DFF204607F08EFDFB
:1044F000204601F063FD046A002CEBD1284601F050
:104500005DFD046A8569E2E7CC000020F7B5114C37
:1045100023680546586C01F05BFD22680190D0E9E4
:10452000027600F10803D2E9020183E8030001A842
:1045300001F05CFD2868FFF7ABFF2368586C01F0C1
:1045400047FDC0E90276019001A801F04FFD03B0DC
:10455000F0BD00BF3800002073B506460D46284662
:1045600001F036FD836A019013F00204014605D183
:1045700001A801F03BFD204602B070BD304608F0B6
:1045800029F9019B9C6901A83CB901F02FFD054B5D
:104590001868431B58425841EEE701F027FD2546B5
:1045A000DDE700BFD8000020124B30B51D682A6C33
:1045B00085B0044622B905B0BDE8304001F070BBBB
:1045C0001068516802AB03C30B4B186800B9686CE4
:1045D00001F0FEFC02A9019007F0CFFD01A801F057
:1045E00005FD214602A808F0F5F802A801F058FBE5
:1045F00005B030BD38000020E00000201FB5104B92
:104600001B6893F850202AB10E4804B0BDE8104052
:10461000FFF7CABF586C01F0DBFC019003C802AC85
:1046200084E8030001A801F0E1FC074B196811B10F
:104630002046FFF791FF2046FFF7B6FF04B010BDFC
:1046400038000020FC000020E0000020064B10B5E0
:104650000446186800B910BDA04203D001F0AEFCBA
:104660004069F7E70120F6E7C800002013B50446CB
:1046700040B101F0ADFC836A01909B0704D401A80E
:1046800001F0B4FC02B010BD406A40B10B4B1B6896
:10469000A34204D003F018FC019B00225A6220467A
:1046A00007F045FF0446002CE9D02046FFF7DEFF67
:1046B000204601F083FC046AF5E700BFE400002017
:1046C0007FB50E460546144601F078FC816A0190DC
:1046D0008B0729D5304607F058FD28B321F4FF6138
:1046E00021F006010905090D01291DD0284601F018
:1046F0006FFC02AD024601903146284608F087F86B
:10470000284607F042FD60B1019B9A6A44F22001FD
:104710000A4203F1080609D02A463146304608F01D
:1047200055FA01A801F062FC04B070BD95E80300E1
:104730001443054A86E803009C6213880133138002
:1047400002F078FAEDE700BF6404002070B50D4D6B
:10475000044600F0F9FD2B685E6C0CB90A4A146837
:104760005C6401F021F9204601F028FC2B68B0F9C7
:1047700000209A64B0F90220DA6400F0DBFD3046D4
:1047800070BD00BF38000020C80000202DE9F347AD
:10479000DDF828A01E4680468946154600F0D4FD67
:1047A000474B1F68BAF1000F40F08480454B1B88CF
:1047B000E3B1454B1C68631C012B17D9204601F05F
:1047C00007FCB0F90020B0F9023001909044994400
:1047D0001DB9B0F90450AD1A01351EB9B0F9066023
:1047E000F61A013601A801F001FCA2460D982C3002
:1047F00001F0C8FD0446002851D0324A0B9B1F43EC
:1048000013880133138001F0E3FB0C9B2F4A0361F3
:10481000836A00903A4045444E441343013D013EB3
:104820008362A0F80080A0F802908580C680684668
:1048300001F0DCFB264B1868002839D001F0BEFBE4
:104840000546204601F0BAFB6B6943616C61204666
:10485000514607F026FCB80602D52046FFF776FF42
:10486000F90741BF1B4A1368013313607A0602D56A
:10487000204607F084FEBB070DD5204601F0A8FBBB
:10488000836A009043F002038362684601F0AEFB46
:10489000204607F086FD0121204607F029FD00F0A3
:1048A00049FD204602B0BDE8F0874FF0000A9DE7C1
:1048B0001C60CCE7BAF1FF3FF7D054467EE700BF5B
:1048C000C000002066040020D80000209F3FFF00A9
:1048D000C8000020CC00002037B50446002865D071
:1048E00000F032FD2046FFF7B1FE00285CD00B211E
:1048F000204607F0FDFC204608F0D9FC204601F0D8
:1049000067FB0190406A08B103F0DEFA2B4B0022EE
:104910001A602B4B19688C4208BF1A60294B1A6821
:10492000944204BF00221A60274B1B680022002B10
:104930003ED10721204607F07DFE019DE869FFF783
:10494000CBFFEB69002BF9D1204607F0BCFC1F4BD5
:10495000186850B101F032FB054640698442F8D135
:10496000204601F02BFB43696B61019B9A6AD107DA
:1049700041BF17490B6803F1FF330B60930644BF37
:10498000144A138801A844BF03F1FF33138001F0D8
:104990002DFB114A13882046013B138001F056FB82
:1049A0000E4B1868FFF7D2FE00F0C4FC03B030BD18
:1049B00059688C4208BF5A601B68B8E71001002094
:1049C000DC000020D4000020EC000020C800002003
:1049D000CC0000206404002066040020D8000020E1
:1049E00073B51D4D2B683BB100F0AEFC1B4B1C6832
:1049F00084B92C6000F09EFC194B1B6803B19847EA
:104A0000184B1B68E3B9184B1B6893F85000E0B9CA
:104A100002B070BD204601F0DBFA836A466901905E
:104A200013F4004F07D001A801F0E0FA2046FFF789
:104A300053FF3446DCE701A8344601F0D7FAD7E744
:104A400098470028DFD00120E2E700F02BFC003877
:104A500018BF0120DCE700BF0C010020C8000020C7
:104A6000F000002028030020380000202DE9FF413D
:104A7000554F3B6893F8500030B1544C6369012B9B
:104A800005DD013B6361002004B0BDE8F08104F165
:104A90000806236996E80300013302AD85E80300A8
:104AA00023616BB92388ADF808306388ADF80A300C
:104AB000BDF90A20B4F906309A4210DD6369E0E7D7
:104AC000A389B4F9042001331BB29A42ADF808302F
:104AD000EEDA2388ADF80830E3890133E6E73B6876
:104AE000586C01F075FABDF90820B4F90030019056
:104AF0009A420DD1E388ADF80E30A388ADF80C30A2
:104B00003B685A6C12BB019B2946D86907F0B3F980
:104B1000BDF80830ADF80C303B685A6C12BB019BF5
:104B20002946D86907F0F5F90028F1D1B4F9043025
:104B3000BDF90820ADF80C309A4221DD95E803005C
:104B400086E8030001A801F051FAC2E7104601F01F
:104B500035FA80460022006A294607F08CF9D8F819
:104B60001820CFE7104601F029FA00228046294696
:104B7000006A07F0CEF90028CAD1D8F81820CDE78E
:104B80003B685A6CA2B9019B2946D86907F004FA20
:104B900001A801F02BFA226944F620639A428DDCC9
:104BA00095E8030086E80300FFF728FD01206BE786
:104BB000104601F003FA07460022006A294607F072
:104BC000EBF9BA69DEE700BF38000020F4000020EE
:104BD0002DE9F0413D4F3A6892F8503086B080465A
:104BE0004BB992F851301BB1012006B0BDE8F081FD
:104BF000FFF704FDF8E7364D6B690133012B6B615C
:104C00002E46F1DC506C01F0E3F94FF0FF332B61DD
:104C1000304B00901B78002B39D0D0E9020102AB59
:104C200083E8030002ACB8F1000F03D041462046F0
:104C300007F0D0FD3B68DFF8A0801A6C002A35D061
:104C4000009B10685168019304AB03C3D8F800308F
:104C50003BB101A801F0CAF9D8F8000001F0B8F999
:104C60000190019804A907F088FA204604A907F0EA
:104C7000B1FD01A801F0BAF9D8F80010C1B1204681
:104C8000FFF76AFCA0B96B69013B6B61ADE7836A12
:104C900013F0020402D003C802ABC1E76B69684697
:104CA000013B6B6101F0A2F920469EE76846E1E70F
:104CB0003B682046596CFFF74FFC0028E3D094E88E
:104CC000030086E80300FFF7D1FE8EE738000020DE
:104CD000F40000206C040020E000002008B501F082
:104CE000DBFD024B1B6800221A6408BD380000205F
:104CF000F0B589B0044601F06BF90669876A019046
:104D0000D0E9020102AD85E8030001A801F06EF9C7
:104D1000E6B1BA071AD5184E2E21204607F015FD28
:104D2000337801333370FB0412D50F2305940493B9
:104D30000795FFF7D3FF04A9204600F0BDF93378AB
:104D40002F21013B2046337007F0FFFC09B0F0BD76
:104D50002846FFF73DFF0028F1D00F27CDE9047466
:104D60000795FFF7BBFF04A9204600F0A5F9FFF760
:104D70007DFE0028F2D1E2E76C0400202DE9F0412D
:104D800088B006AE039001F023F903460590D0E900
:104D900002019D6A9F69D3F8108086E8030044F2FF
:104DA000200405A801F022F92C4018D0B8F1000F1A
:104DB00019D10024039801F00BF9826A059022F4BE
:104DC000804323F02003920448BF43F0040383622E
:104DD00005A801F00BF9134A1388013B1380204604
:104DE00008B0BDE8F08103993046FFF7B5FB002815
:104DF000DFD00398FFF7AAFC69070DD557B1ED4343
:104E000005F0010508490095002303AA304604F087
:104E1000C1FACEE70125F5E70398FFF739FB012436
:104E2000C8E700BF640400200D4500002DE9F043F1
:104E30001B4D2B6893F850009DB058B3194E308825
:104E400040B3194F00F080FA3C680CB9174B1C684E
:104E500001A801F0A7FC2B68D3E90C98ECB120461F
:104E6000FFF78CFF0546204601F0A8F84469A4B17D
:104E7000002DF4D048463C6007F024FF404607F080
:104E800015FF01A801F098FC00F054FA30880038B2
:104E900018BF01201DB0BDE8F0830024EAE700BF81
:104EA000380000206404002010010020C800002009
:104EB00038B500F049FA1B4B1B6803B19847002531
:104EC000FFF78EFD044608BB174B1B6893F8503064
:104ED00043B1164B1B882BB1154B1B68C3B11B6824
:104EE0009847012400F026FAFFF7A0FFA0B900F0D0
:104EF0002BFA104B1B68234304D00D4B186868B184
:104F00004368984700F016FA284638BD0125D7E7D0
:104F1000012001F0C7FAE4E70125E5E701F0C2FA54
:104F2000F0E700BFE8000020380000206404002003
:104F3000BC000020C4000020024B1B680122A3F823
:104F4000502070473800002008B5064B1B6800222F
:104F500083F8502000F0F8F900F026FDBDE8084085
:104F600000F0E8B93800002010B50446D0E9003060
:104F7000172B12D005DC0E2B11D0142B09D00023D7
:104F800013E0222B10D0282BF9D1BDE8104007F0F8
:104F900008BAE16807F0BCFAF1E7E06010BD21460D
:104FA000BDE8104007F0DFBB014BE360F6E700BF50
:104FB000EFCDAB0003680E2B10B5044606D00F2BC7
:104FC0000DD02046BDE81040FFF7CEBFC3685A6839
:104FD000012A0ED1BDE81040186800F05BB9054BFE
:104FE0001868054B9842ECD007F060FE01F0C6FA55
:104FF000E7E710BDD0000020EFCDAB0030B51F4C6F
:1050000094F9001085B0002935D11D4B1D4D196054
:105010001D4B19601D4B1B6819641D4B19801D4BDE
:105020001980042302931C4B01930223009343F63F
:10503000FF7308461A4607F0B7F9184B184A1A606A
:10504000286007F0AEF9174800F052F8164800F053
:105050004FF8164800F04CF82868FFF777FBFFF789
:105060006BFF012312482370124B036005B0BDE8AB
:10507000304001F093BA05B030BD00BF6D04002090
:10508000C8000020D80000201001002038000020B7
:105090006404002066040020B54F0000D00000200A
:1050A000EFCDAB001C0100201401002024010020E2
:1050B000B40000203543000070B50C4D2B68132B55
:1050C00006460C460CDC00F079FF0269666042B1CE
:1050D0002B68204601332B6090472B68013B2B60E7
:1050E00070BD2046BDE87040FFF73EBF2C01002098
:1050F000024B1A6802601860704700BFEC00002085
:10510000014B1868704700BFD800002070B586B00A
:1051100006460D4600F018F9094B1C6854B10E23E1
:10512000204602A9CDE900650293CDF814D0FFF71F
:10513000C3FF012400F0FEF8204606B070BD00BF9A
:10514000DC000020002809DC054B53F8200000B9E2
:105150007047C3681B6813B10068F8E70020704708
:1051600000030020F8B51C1E06460D46174601DD5B
:105170000020F8BD1C2001F00FF80028F8D045B140
:1051800005610023C0E9003384618782C6608360C3
:10519000EFE7064B53F82430002BF2D01A461B6879
:1051A000002BFBD113690361EBE700BF0003002074
:1051B00081690B4A036810B552F82140A04204D11E
:1051C00042F821300BB100225A60426802B11360EC
:1051D000036803B15A600023C0E9003310BD00BF6B
:1051E0000003002030B508B9012030BD81690029D5
:1051F000FADC1C4B1C4C1A788A42DCBF01221A7064
:1052000054F821201AB944F821000020EDE7134694
:105210005268002AFBD1C2681268DD682D68954289
:105220000DDD1B68002BF8D1DEE71060426058608E
:10523000984208BF00230360E7E72B460BE00AD142
:10524000858A012D07D11D461B68002BF5D0DD682E
:105250002D68AA42F7DD5A68002AE6D144F82100F9
:10526000E5E700BF700400200003002038B51D46AC
:10527000FFF778FF044648B1FFF7B4FFE3681B6807
:1052800023B9034B1B6803EB85035C65204638BDDF
:1052900038000020024B1A6802B9186001F0CABC3D
:1052A0003001002010B500F04FF80B4A0B4913688D
:1052B00009688B420ED00A4CA342D3E9000114BF07
:1052C0000833503B1360FFF721FF012400F032F850
:1052D000204610BD0024F9E7100000201400002033
:1052E00084010020F8B50C4D0C4E002474272B6867
:1052F000A34201DC00240AE006F082FB326807FBCF
:1053000004F3D118D358834201D013B90860204662
:10531000F8BD0134EBE700BF1C0000209C01002019
:1053200010B5034C206800F03DFE0023236010BD43
:105330009C010020034A1368013B13600BB906F07F
:1053400058BB70478C0100202DE9F041194C1A4DD3
:1053500023682BB906F046FB06F052FB286004E0F8
:1053600006F04EFB2B689842F4D123680133012BE1
:1053700023601DD1114EFFF7B5FF3568A8420446E2
:1053800016D0002D13DBDFF83C80D8F800207427FE
:1053900007FB052507F014FAD8F80030084A2867FB
:1053A00007FB0433191D186F116007F00BFA346006
:1053B000BDE8F0818C010020980100201800002039
:1053C000380000209C01002007B50F480F4B0360F8
:1053D00001F0E4F80E4B1A6874235A431046019208
:1053E00000F0DAFE0B4B019A18600B4B00211B6892
:1053F00098470A4B4FF0FF321A6006F0ECFA03B000
:105400005DF804EBFFF76EBF900100202153000010
:105410001C0000209C0100200C000020180000202F
:105420002DE9F047DFF85CA0DFF85C80144F002521
:10543000DAF80030AB420ADCFFF754FFD8F800304E
:10544000742202FB003004303860BDE8F087D8F8E1
:105450000090396874266E4309EB0604231D6C2204
:10546000184608F0C8F8002249F8062004F108039D
:1054700004F10C02A261E06323640135D8E700BFA8
:10548000380000201C0000209C01002070B5084B53
:105490001B681A7C82EA0001490705D59C6BD96B11
:1054A00025680E6826600D601874104670BD00BF38
:1054B00038000020014B1B689B6818472000002023
:1054C000144B1B680A46B3F90A10914230B40446E3
:1054D0001EDCB3F90E1091421ADBB3F908108142B9
:1054E00016DCB3F90C10814212DB0B49587C1D7C91
:1054F00051F82000ED07C16803D5CB69214630BCC7
:1055000018478D69DB6B2146AC461B6830BC604791
:1055100030BC70473800002000030020114B30B42D
:105520001D68B5F90A308B420C4619DCB5F90E300E
:105530008B4215DBB5F90810B5F90C308142B8BFC4
:1055400001469342A8BF13468B4209DB687C064A9A
:1055500052F82000C26895682246AC4630BC6047CD
:1055600030BC7047380000200003002073B51E4691
:10557000134B1C680D46B4F908108142B8BF0146B0
:10558000B4F90C0090420346A8BF1346994214DCBC
:10559000B4F90A00A8420246B8BF2A46B4F90E5030
:1055A000B542A8BF3546954207DB647C054850F8F4
:1055B0002400C46800952469A04702B070BD00BFF4
:1055C00038000020000300202DE9F04F8FB0DDE906
:1055D00018850695DDE91A95DFF8B4E10195DDE956
:1055E0001C75DEF800E0029584461E9D0C461646AA
:1055F0009B46BEF1000F06D0DEF80040A4460FB077
:10560000BDE8F04F6047069B48EA0303012B49D1F0
:105610005D4B1868B0F90A20531A002B3FDDABEB45
:10562000030EBEF1000F49DD019901FB0377B0F9CC
:105630000E305C44013CE41A002C04DDAEEB040E99
:10564000BEF1000F3ADDB0F90C100CEB0603013B84
:105650005B1A002BC8BFF61AB0F90830ACEB050195
:105660008B4209DD5B1A1D44F61A23F0070307EB92
:10567000E507194405F00705002E1FDD407C434B6C
:10568000029C53F82000C3681B97CDE91C54019C71
:10569000CDF860E0CDE919945C683346AEE7DE46AC
:1056A0000A46C4E7C9F10803099300EB08037546ED
:1056B000CDF810E00C93049B5B4502DB0FB0BDE816
:1056C000F08F314A069B1268E318B2F90A1007936B
:1056D000013B994213DCB2F90E20A2420FDB0C9A77
:1056E00005924FF0000A4FEA48010897CDF80CA048
:1056F0000B91059AA2EB0800039AB24206DB049BC9
:10570000079C01330493019B1F44D4E7BAF1000FB7
:1057100005D1089911F8015B08914FF0080A099921
:10572000194A45FA01F111F0FF0105FA09F5D2F81D
:1057300000C0EDB2AAEB090A04D19CF810E01EF0FB
:10574000020F19D1DCF83CC0DCF800200A92029A62
:105750008E460AB152F821E0059ACCF800E0013AF1
:1057600021460D930590FFF701FF074B05981A6836
:105770000A9BD26B13600D9B039A013203920B9A22
:1057800002440592B5E700BF380000200003002066
:10579000040300202DE9F04F8FB0DDE91894069442
:1057A000DDE91A740194DDE91C4602967B4E3668E9
:1057B00084460D4690469B462EB13468A4460FB0F1
:1057C000BDE8F04F6047069B49EA0303012B75D102
:1057D000734B1868B0F90A20531A002B2FDDABEB7E
:1057E0000306002E74DD019901FB0344B0F90E306D
:1057F0005D44013DED1A002D02DD761B002E67DDB4
:10580000B0F90C100CEB0803013B5B1AB0F908105F
:10581000002BC8BFA8EB0308614547DDA1EB0C03D3
:10582000082FA8EB03080DDC002F11DD7D1E072DCE
:105830000ED8DFE805F021290D310D0D0D395E463A
:105840000A46D3E7182F36D0202F34D0102F2FD070
:10585000B8F1000F3CDD407C5249029D51F8200018
:10586000C1681B94CDE91C35019B1896CDE91973CD
:1058700043464C686146A1E723F0070104EBE304CB
:105880008C4403F00703E3E723F0030104EBA304D4
:105890008C4403F00303DBE723F0010104EB630412
:1058A0008C4403F00103D3E71C448C460023CFE76C
:1058B00004EB4304F9E704EB8304F6E7C7F10803BC
:1058C000099300EB090304960C93049B5B4502DBF0
:1058D0000FB0BDE8F08F324A069B1268EB18B2F9A0
:1058E0000A100793013B994213DCB2F90E20AA4239
:1058F0000FDB0C9A05924FF0000A4FEA4901089419
:10590000CDF80CA00B91059AA2EB0900039A424531
:1059100006DB049B079D01330493019B1C44D4E7E1
:10592000BAF1000F05D1089911F8016B08914FF0F9
:10593000080A09991A4A46FA01F111F0FF0106FA1C
:1059400007F6D2F800C0F6B2AAEB070A04D19CF819
:1059500010E01EF0020F19D1DCF83CC0DCF800208A
:105960000A92029A8E460AB152F821E0059ACCF8C2
:1059700000E0013A29460D930590FFF7F7FD084B2B
:1059800005981A680A9BD26B13600D9B039A01322B
:1059900003920B9A02440592B5E700BF040300206E
:1059A0003800002000030020044B1968044B4A7C97
:1059B00053F82200C36808311B6B184738000020D9
:1059C0000003002013B5FFF7EFFF04F029F80446A9
:1059D00030B1204602B010BD0124FAE70446F8E7D2
:1059E000FFF7B0FB019058B1C3680C215B6A01A8B6
:1059F000984703460028EFD0019898470028EDD13A
:105A000004F02AF8134B1A68134B9A42E1D0002095
:105A1000FFF798FB01900028DBD0002000F02AF966
:105A20000420FFF747FD43F6FF7300211A4608469E
:105A3000FFF79CFD0020FFF73DFD019BDB680E2179
:105A40005B6A01A8984703460028C2D0019898478E
:105A5000BFE700BF28000020EFCDAB00044B1B6860
:105A60005A7C044B53F822301B691B68184700BF4F
:105A70003800002000030020044B1B685A7C044BB4
:105A800053F822301B695B68184700BF38000020BC
:105A900000030020044B1B681A7C52074CBF9B6B11
:105AA000DB6B1860704700BF38000020064A1268A0
:105AB000116B814208B506D01063FFF7CFFFBDE838
:105AC0000840FFF7E7BF08BD38000020044B1B6803
:105AD0001A7C52074CBFDB6B9B6B1860704700BF92
