:100000000080022075010000C90100004B040100BE
:10001000CD010000CF010000D10100000A73FCDF18
:10002000000000000000000000000000D3010000FC
:10003000D501000000000000D7010000052F0000DE
:10004000B1020100B9020100C1020100C9020100B0
:10005000D1020100D9020100E1020100E902010020
:10006000F1020100F902010001030100090301008E
:100070001103010019030100010200002102000028
:10008000410200006102000081020000A1020000A4
:10009000210301002903010031030100390301009C
:1000A000410301004903010051030100590301000C
:1000B00061030100F90200006903010071030100FE
:1000C000790301008103010089030100910301000C
:1000D00099030100A1030100A9030100B10301007C
:1000E000B9030100C1020000C1030100C9030100FE
:1000F000D1030100D9030100E1030100E90301007C
:10010000F1030100F90301000104010009040100E9
:10011000110401003503000019040100210401004D
:1001200029040100107F01000000002014040000D9
:10013000107F01000000000400000000107F01009B
:100140000000104000000000107F0100000000A02F
:10015000000000001804002000CC00000000000493
:10016000000000000000104000000000000000A09F
:100170000000000038B572B612484FF03801016037
:1001800002F020FF0C4C0D4DAC4206D30C4DAC429E
:100190000BD362B611F06CFBFEE7D4E900010C341E
:1001A00054F8042C00F01AF8EEE754F8080B54F851
:1001B000041C00F01CF8EAE72401000054010000D0
:1001C0007401000020020040FEE7FEE7FEE7FEE7C4
:1001D000FEE7FEE7FEE7FEE7FEE7FEE710B50023D9
:1001E000934200D310BD1C585C500433F8E7002341
:1001F0001A468B4200D370471A500433F9E7FFFFC9
:1002000008B5064BD3F8042E520604D5D3F8300EA9
:10021000C0B204F037FFBFF34F8F08BD0060084045
:1002200008B5064BD3F8042E520604D5D3F8300E89
:10023000C0B205F0EBFCBFF34F8F08BD0070084063
:1002400008B5064BD3F8042E520604D5D3F8300E69
:10025000C0B204F01BFCBFF34F8F08BD0080084004
:1002600008B5064BD3F8042E520604D5D3F8300E49
:10027000C0B207F0C1FCBFF34F8F08BD009008402B
:1002800008B5064BD3F8042E520604D5D3F8300E29
:10029000C0B205F09FFBBFF34F8F08BD00A0084020
:1002A00008B5064BD3F8042E520604D5D3F8300E09
:1002B000C0B205F0F9FABFF34F8F08BD00600940E6
:1002C00008B5064BD3F8042E520604D5D3F8300EE9
:1002D000C0B205F0CFFCBFF34F8F08BD00A00940AE
:1002E000014B01221A70704733CA0020014B187964
:1002F00004F0CABF00C008400B4808B503685B079C
:1003000010D50368094923F00C0343F0040303608C
:1003100083683C33436011F090F80EF01DFC044BF1
:1003200003221A7008BD00BF00C0024074C900203B
:1003300037CF002010B5084811F037F804460146C1
:10034000054811F037F8230742BF044B01221A7009
:10035000BFF34F8F10BD00BF0030084084C900209C
:100360002DE9F0478CB011F0FDF911F0D8F911F03A
:10037000F7F902F041FE02F00DFF4FF08043D3F891
:100380000C2542F00102C3F80C250122DA6402F0C8
:1003900085FE044678B901467D4811F01BFA4FF4FA
:1003A00081731F22CDE900320294902308227949FB
:1003B000774811F03EFA4FF0804700F0A5FCD7F8DF
:1003C0008023D7F8B8337449744ED2B20132B0FBEF
:1003D000F2F0DAB20132B0FBF2F271480FF040FDF8
:1003E0004FF000084FF6FF73CDE9013814230825BC
:1003F000009308226A49664811F0B6F902F0A8FE97
:10040000C7F8285207F07EFC04A8012410F0E8FE8B
:1004100004A9304600F06CFE2046ADF81C4000F008
:1004200047FD4FF47073B0FBF3F0A0F5C350069096
:100430004FF00309304622465A49ADF81E908DF818
:10044000204000F0C5FE06AA4146304600F080FE7E
:10045000736823437360544B544EC3F8105E4FF4DB
:1004600080433360524BC3F8105E4FF40043336057
:10047000504BC3F8105E4FF4803333604E4BC3F8DB
:10048000105E4FF4003333604C4BC3F8105E03F53D
:1004900040434FF4802AC6F800A0C3F8105E4FF422
:1004A00000233360464BC3F8105E4FF40073736053
:1004B0002046ADF8284000F0FBFC424D39498DF84C
:1004C0002C404FF41653B0FBF3F0A0F594500E38C7
:1004D00040F20313099022462846ADF82A3000F076
:1004E00077FE09AA2846214600F032FE6B6836499D
:1004F00023436B60A5F5E83528462B6823F080037D
:100500002B6010F08BFF2B682F4923F00C0343F076
:1005100010032B604FF0005333602B6843F08003CF
:100520002B60AB683C336B60284610F086FF00F010
:1005300011FB2648C7F820A210F002FF4FF04062DE
:100540004146224810F003FF214A2048214610F07E
:10055000FEFE204A1D48022110F0F9FE1E4A1B48EB
:10056000494610F0F4FE1D4A1848042110F0EFFE31
:100570001B4A1648052110F0EAFE144810F0EEFE62
:100580004FF0402001F034FA11F071F9FCE700BFA0
:10059000000000A0EE740100F7740100008000402C
:1005A0007CC90020000000200060084000E100E05D
:1005B00000700840008008400090084000A00840FB
:1005C00000A009400090044074C900200050004081
:1005D0001E00000C0D00000C0E00000C1600000C9C
:1005E0000100000C026810B504466AB113461946B2
:1005F00013F8010B202811D93A28F8D112F8013B41
:100600009142A3F1300302D04FF0FF3005E0DAB29F
:10061000022AF9D801311846216010BD014B187823
:10062000FBE700BF85C9002038B50023C3704FF039
:10063000FF33036305460FF0CDFF044618BB95F862
:10064000332295F8323243EA02234AF65522934286
:100650001BD195F83430EB2B03D01833DBB2012BD0
:1006600015D803220B4905F16A000FF039FF40B19C
:100670000522094905F186000FF032FF002818BF56
:100680000224204638BD0424FBE70324F9E70224B2
:10069000F7E700BFFB740100FF7401002DE9F04390
:1006A000002385B00B600F461546FFF79BFF061E23
:1006B000C0F23481A14B53F82640002C00F0308169
:1006C0003C60237805F0FE056BB160780FF0D2FE38
:1006D000C10708D41DB110F0040500D00A25284632
:1006E00005B0BDE8F0830023F0B2237060700FF016
:1006F000C7FEC20700F116810DB14307EED40021F9
:100700002046FFF791FF022840F0EF806F4604F586
:10071000FD7104F23A263D4611F8040C10B108466A
:100720000FF0C8FE10318E4245F8040BF4D10025BD
:1007300057F8046B002E00F0CF8031462046FFF7BB
:1007400073FF012800F2C98094F8402094F83F30EC
:1007500043EA0223B3F5007F40F0CB8094F84B309E
:1007600094F84A5055EA032504D104F158000FF0DB
:10077000A1FE054694F84410E5614B1E012BA170C3
:1007800000F2B78094F841901FFA89F36381002B3F
:1007900000F0AF8009F1FF3313EA090F40F0A980A0
:1007A00094F8463094F8457047EA03273FB21FFAA1
:1007B00087F818F00F0FA4F8088040F09A8094F89A
:1007C000483094F8470050EA032003D104F1540064
:1007D0000FF070FE94F8432094F8423053EA02235D
:1007E00000F0878005FB01FC03EB18126244904285
:1007F0007FD3801A4845B0FBF9F17AD35048814243
:1008000077D84FF6F570814240F28E804FF00309A1
:10081000023133443244B9F1030FA16126626362AD
:10082000E2626AD194F85F2094F85E3043EA0223D2
:100830001F433FB2002F5CD104F160000FF03AFE7D
:10084000A062890001F2FF11B5EB512F51D34FF097
:10085000FF33C4E90333B9F1030F4FF08003237171
:100860002FD194F8652094F8643043EA0223012BD9
:1008700027D1711C20460FF0ADFE10BB94F8332237
:1008800094F83232207143EA02234AF65522934209
:1008900017D104F134000FF00DFE2A4B984210D10D
:1008A00004F506700FF006FE274B984209D104F5B7
:1008B00007700FF0FFFD206104F508700FF0FAFDDE
:1008C000E060224A84F80090138801339BB200252F
:1008D0001380E380656102E703200135042D7FF476
:1008E00027AF042805D10125F9E60428FBD001280B
:1008F00001D90D25F3E6002626E7B8F1000FF8D060
:100900006344B9F1020FA3624FEA41031BBF5B18B6
:1009100001F00101194601EB530193E70B25DEE6D7
:100920000C25DCE60325DAE640F6F57949458CBF6F
:100930004FF002094FF001096AE700BF30040020C0
:10094000F5FFFF0F525261417272416170C9002080
:100950002DE9F8430B78D0F800802F2B04460D4684
:1009600001D05C2B0AD12A4613782F2B154602F1B1
:100970000102F9D05C2BF7D0002301E0D8F8143045
:10098000A3602B781F2B44D904F120070B222021D0
:1009900038460FF09FFD2B782E2B4CD184F8203059
:1009A0006B782E2B3ED184F82130AB782E2B5FD084
:1009B00003222F2B38D11544202384F82B3000211B
:1009C0002046D4F800900FF0F9FE0646002840F0CB
:1009D0009080A16948460FF0FDFD0646002840F0D2
:1009E0008880E0690378002B00F08280C37A03F0EE
:1009F0003F03A371C67A16F0080605D10B223946CB
:100A00000FF06EFD002874D0002120460FF0E6FFA5
:100A1000DBE7802384F82B3020460021BDE8F84333
:100A20000FF0CCBE0222C4E75C2BC4D0202B1FD811
:100A300015442423C1E700221046082632E0013184
:100A400039E02E2B7FD0964212D9802B08D99F2BCC
:100A500010D903F1200C5FFA8CFCBCF11C0F09D9F2
:100A6000DFF8ECC01CF8010B002838D08342F9D124
:100A700006264EE0695C3F2900F10200F8D97E2984
:100A800004D981F0800CBCF17C0FF1D806F1FF3C59
:100A90006245EDD202F1010CBB5407F80C10023292
:100AA000014608462B5C202B00F1010108D92F2BB1
:100AB00001D05C2BC5D1685C2F28C0D05C28BED08B
:100AC0000D44002AD4D094F82020E52A04BF052242
:100AD00084F82020212B34BF042300236DE7A3F1E9
:100AE000610019289CBF203BDBB2BB540132D8E720
:100AF000042694F82B309EB1042E0AD1990603F0F7
:100B0000040209D5002A3FF441AF802384F82B303A
:100B100000263046BDE8F883002A08BF0526F8E71E
:100B20005A07F6D4A379DB060BD5236998F80000A1
:100B3000C3F3080308F1340119440FF00DFDA06060
:100B400024E70526E5E70B2E92D008220B26A8E71E
:100B500005750100084A0949012313600822C1E90B
:100B6000002390208A61064A88604FF00B0C892090
:100B7000C1E9040C1360704707000090080000985A
:100B800014000098B0F1004F70B51DD0104E022136
:100B90004FF080440125B8B1C0F30B0383B1DAB242
:100BA0001F2A18BF92004FEA132303F1FF3318BF27
:100BB00002F18042DBB20ABFE564C2F880323362E0
:100BC00001294FEA103000D170BD0121E3E700BFD9
:100BD00000000440174B984270B5054605D0164AF0
:100BE000904202D0154A904221D14FF08044102209
:100BF000C4F830269D42D4F8006513D9104B28461E
:100C000098470E4B9D42D4F8003506F0807243EAB7
:100C1000020343F0404301D143F48043C4F800355C
:100C2000002070BDD4F8003523F08043F6E70120A2
:100C3000F7E700BF001BB700006CDC0200D8B80566
:100C4000DF9100034FF080430348D3F8103613F0D0
:100C5000100F18BF00207047001BB7004FF08043F3
:100C6000D3F81026D20211D4D3F80805D3F80835EA
:100C7000074AC3F3441300F01F00D25C01304CF26A
:100C8000503353434000B3FBF0F0704700207047EF
:100C9000147501004FF08043D3F81026D2060CD40F
:100CA000D3F80005184009D0D3F80035044813F4F0
:100CB000804F044B08BF184670470020704700BFA4
:100CC00000D8B805006CDC024FF0804108B5D1F8BF
:100CD000E0325BB1012B12D000204FF08043D3F8FB
:100CE000AC33DBB20133B0FBF3F008BDFFF7D2FF4A
:100CF000D1F88833DBB20133B0FBF3F0EDE7014B01
:100D00001868EAE73C0400204FF08043D3F88402DF
:100D1000022817D0032818D0D0B9D3F880220AB9F6
:100D2000FFF790BFD3F88022012A13D0D3F8802296
:100D3000022A01D1FFF792BFD3F88032032B0AD1E8
:100D4000FFF7A8BF044B186870474FF40040704786
:100D5000002070470148704740040020001BB70086
:100D600008B54FF080431946D3F88822072A1ED8C9
:100D7000DFE802F00D1F101316191B044FF400409A
:100D8000D1F88433DBB20133B0FBF3F008BDFFF7D9
:100D9000BBFFF5E7FFF762FFF2E7FFF77BFFEFE747
:100DA000054B1868ECE7054BFBE7054BF9E700201E
:100DB000E6E70448E4E700BF4004002044040020C4
:100DC0003C040020001BB70008B54FF080431946D3
:100DD000D3F8F022032A14D8DFE802F0020B0E1138
:100DE000FFF792FFD1F8B433DBB20133B0FBF3F07D
:100DF00008BD054B1868F5E7FFF74CFFF2E7034B1A
:100E0000F8E70020EEE700BF400400203C0400208B
:100E100008B54FF080431946D3F8F822042A17D8B2
:100E2000DFE802F0030C0F111400FFF76DFFD1F89B
:100E3000BC33DBB20133B0FBF3F008BD054B1868DF
:100E4000F5E7054BFBE7FFF725FFF0E7034BF6E778
:100E50000020ECE740040020440400203C04002073
:100E6000054B1B6A13F0030301D1FFF74DBF012BA4
:100E7000024818BF0020704700000440001BB70064
:100E80004FF08043D3F8E832032B0CD8DFE803F0AF
:100E900002040709FFF738BF044B18687047FFF7D3
:100EA000D1BEFFF7F7BE0020704700BF400400200E
:100EB00008B50E2809D8DFE800F00A0E1921081D30
:100EC000253C29082C3034083800002008BDBDE836
:100ED0000840FFF719BFFFF717FF4FF08043D3F823
:100EE0008033DBB20133B0FBF3F0EFE7BDE808403D
:100EF000FFF736BFBDE80840FFF7E6BEBDE8084093
:100F0000FFF7C8BEBDE80840FFF79CBE0A4B186853
:100F1000DCE7BDE80840FFF7A1BEBDE8084010F0DF
:100F200046B9BDE80840FFF79BBFBDE80840FFF7A2
:100F30006FBF0248CAE700BF40040020001BB70093
:100F4000144B984202D8002010F0EDB8124B984292
:100F500001D80120F8E7114B984201D80220F3E7AD
:100F60000F4B984201D80320EEE70E4B984201D870
:100F70000420E9E70C4B984201D80520E4E70B4B2D
:100F8000984201D80620DFE7094B984294BF07201A
:100F90000820D9E7001BB70000366E01005125027A
:100FA0000087930300D8B805000E27070044950872
:100FB000007A030AF8B54FF080440546D4F8903221
:100FC00003F00703012B01D110F0B8F84FF48007AC
:100FD0000EF098F8C4F820762B68C4F880356B685A
:100FE000C4F8883543F48063C4F88835AB68C4F826
:100FF0008C3543F08003C4F88C35EB68C4F8903529
:1010000043F40033C4F89035AB69990718D0134BFB
:10101000D4F89065C4F8903503F5003326F4003613
:10102000C4F830760E49C4F89035482000F01CF81A
:10103000C4F8906546F40036C4F89065C4F830767C
:10104000AB699A0705D54FF08042D2F88435DB07AB
:10105000FBD5044B2A691A600020F8BDD25D04005C
:101060000095BA0A4004002008B5064A0023A0FBF8
:10107000010110F0BBFD0046A0F101000028FBD1EA
:1010800008BD00BF00093D0010F1800F0CD0002802
:1010900008DB4209012300F01F0003FA00F0034BB4
:1010A00043F82200002070470120704700E100E073
:1010B0000E4B984212D003F58053984210D003F59E
:1010C000F83398420ED003F5003398420CD003F564
:1010D000805398420CBF04200520704700207047C1
:1010E00001207047022070470320704700800040B5
:1010F00070B50D460446FFF7DBFF124B33F8103096
:101100001A0A022A4FF0804194BF88320E4A4FF0EB
:101110000106DBB206FA03F392BF41F82230CE6437
:1011200053610A4B53F8200010F060F96B782A786D
:101130009B0003F00C0302F00302134323676B6868
:10114000E36070BD1C20010000000440C81E0100C7
:101150002DE9F0414F0045697E180723B34025EA89
:10116000030C1379157A06F1010E03FA0EF392F8C7
:1011700005E006F102080EFA08FE05FA06F643EA53
:101180000E03334343EA0C034361C36B3026BE4076
:1011900023EA060693790437BB4033430127D67907
:1011A0008F408E4023EA070333430631C36313683D
:1011B00040F8213007603DB1FFF77AFF034BBDE8EF
:1011C000F0411856FFF760BFBDE8F08134750100AB
:1011D00008B5FFF76DFF034B43F82010024B1A547C
:1011E00008BD00BF4804002086C90020144B53F8F6
:1011F00020302DE9F0411D681D60124B1B5C064636
:1012000053B9114B53F820301B680BB1284698474F
:10121000BFF34F8FBDE8F081DFF82C800024012759
:1012200007FA04F32B4206D058F8263053F824303E
:101230000BB1284698470134072CF1D1E8E700BFED
:10124000B41E010086C9002048040020024BC01AC9
:1012500018BF0120704700BF002008402DE9F84367
:10126000FFF7F4FF294B782606FB003600274FF0E6
:10127000010856F8044B002C43D0257BA36869096C
:10128000583305F01F0553F82120EA40D2070DD549
:10129000D4F8009008FA05F243F82120B9F1000FC4
:1012A00004D00023012261682046C847A368227B3E
:1012B0006033520953F82210E940C8070DD5D4F81D
:1012C000009008FA05F143F82210B9F1000F04D09C
:1012D00001231A4661682046C847A368227B403331
:1012E000520953F82210E940C9070AD508FA05F552
:1012F00043F82250256825B1022300226168204668
:10130000A84701371E2FB4D1BDE8F8835C04002044
:1013100008B50348FFF7A2FFBFF34F8F08BD00BF1A
:101320000020084010B54FF080434FF400220446DF
:10133000C3F82422044810F059F80023C4F8803080
:10134000C4F8803110BD00BF1300010008B5034B85
:101350001B6803B19847BFF34F8F08BDD40400202A
:1013600008B5034B1B6803B19847BFF34F8F08BD07
:10137000D804002038B50D460446FFF7C5FC4FF0F1
:1013800080424FF47A71D2F88033D2F8B823DBB2BE
:10139000D2B20133B0FBF3F0531CB0FBF3F0064BB9
:1013A000B0FBF3F0604300F2E730B0FBF1F0A8428D
:1013B0002CBF401B002038BD40420F0070B54FF0DD
:1013C000804480230646C4F828320F480D4610F0AA
:1013D0000DF8D4F8083143F08003C4F80831D4F88C
:1013E000083123F08003C4F80831AB78C4F8B8336F
:1013F0006B78DB0003F00803C4F844342B78B36047
:101400000123336070BD00BF070002002DE9F843DF
:101410000D461E460446174613460021B1427CD1B4
:101420002B78A86803F00303A3620121FFF7A2FF52
:1014300000F00F0020630121E868FFF79BFF00F038
:101440000F00606301212869FFF794FF00F00F008F
:10145000A06301216869FFF78DFF00F00F00E063D2
:101460000021A869FFF786FF00F00F00206401212A
:10147000E869FFF77FFF00F00F0060640121286A30
:10148000FFF778FF00F01F00A0640121686AFFF7F2
:1014900071FF00F01F00E0640121A86AFFF76AFFF6
:1014A00000F01F0020650121E86AFFF763FF00F0EC
:1014B0000F00606595F8303013B1013B03F00F0366
:1014C000A3654549DFF814916420FFF7CDFD40F294
:1014D0008313236240496420FFF7C6FD40F20313E3
:1014E0002362022363623C493220FFF7BDFD686836
:1014F0000021FFF73FFF8323000960623D4623621E
:101500004FF00008B04528D17B78002B38D100235C
:101510002362B34252D1BDE8F883002B80D05A78C1
:10152000187AD200C00100F4BF4002F01802024352
:10153000187804EB40100A33C0F8002133F8062C69
:1015400013F808CC120102F440720CF0030C42EACA
:101550000C02C0F80421013160E7002DD4D0287AB4
:101560000FF097FEAB8823F4C04303FA00F015F8A0
:101570000A3B59F82330184308F101080368C1E712
:101580008323DFF8589023623D464FF00008B045B2
:10159000BDD0002DBBD0287A0FF07BFEEB8823F462
:1015A000C04343F4804303FA00F015F80A3B59F8AE
:1015B0002330184308F101080368E8E7002FAAD098
:1015C00017F80A2B04EB42120133D2F8001141F450
:1015D0000021C2F800119CE70095BA0ADC1E010048
:1015E00008B5044A044B11681B6804489847BFF3C8
:1015F0004F8F08BDDC040020E004002000200940DB
:10160000054A002352F8041B814202D001330A2B01
:10161000F8D11846704700BFEC1E010070B50C46AB
:101620000546FFF7EDFF1E4B33F810301A0A022A69
:101630004FF001064FF0804192BF8832194ACE64C4
:10164000DBB206FA03F394BF41F822305361164B24
:1016500053F820000FF0CAFE44B1042C14D8D5F87A
:10166000F83FE21CD34003F00103A3B1D5F8F83FE3
:101670001B0705D5D5F8F83F03F00703A3420CD1AB
:10168000C5F8F84F002070BD052C04D1D5F8F83FFF
:10169000C3F3C013E9E70320F5E70120F3E700BF38
:1016A0002620010000000440141F010008B5044A70
:1016B000044B91699B6904489847BFF34F8F08BD5D
:1016C000E40400200C0500200070094008B5044A1D
:1016D000044BD169DB6904489847BFF34F8F08BDBD
:1016E000E40400200C0500200080094008B5044AED
:1016F000044B116A1B6A04489847BFF34F8F08BD1B
:10170000E40400200C05002000900940064A08B5BA
:10171000136843F001031360044B1B6803B198473F
:10172000BFF34F8F08BD00BF0020004034050020EC
:10173000064A08B5136843F001031360044B5B6865
:1017400003B19847BFF34F8F08BD00BF0030004082
:10175000340500202DE9F74F4FF00A0808FB02F38B
:1017600001936FF0010303FB01FB122700234F439A
:1017700001EBC10A1C469E460926019DB5FBF7F9FF
:1017800009F10509B9FBF8FCBCF5803F28BF4FF40F
:10179000803C0AFB0CF5A2EB4505754502D3BEF172
:1017A000000F02D163463446AE4645B10C4DA94503
:1017B00005D8013E012E5F44AAEB010ADDD1013BB1
:1017C0009BB2023CC0F81438230103F0700304F00C
:1017D00007041C43C0F8244803B0BDE8F08F00BFE5
:1017E000FFFF09002DE9F0410E6802EB5607B7FB39
:1017F000F6F7012F05460C4606D891F82130202B2C
:1018000000F0958004207BE0023F1F2FFAD891F86A
:101810002160002E76D1002FF4D094F82120A388E7
:10182000900640F18880494A013B9BB202EA034896
:101830004FF080430422C3F828224FF002100FF02B
:10184000D5FDAA69E38B94F8211002F498320B437A
:101850001A43237F5B0003F00E03134394F8202008
:101860000AB143F48073AB611E23AB620123C5F858
:10187000243C0023EB61C5F8203CA379E279013BCD
:10188000013A1B02120402F47F029BB21343227A34
:10189000013A43EA0263A2881209013A9200D2B2E5
:1018A00013432B606389A27B013B013AC3F3090315
:1018B00043EA0263227B013A920292B21343627BB3
:1018C000013A120402F47F0213436B60E27B238A25
:1018D000013A920102F4F8621A4317433E43A37C93
:1018E00046EA0806AE602BB1E37C013B03F07F03C0
:1018F00043F48033EB6063692B61A3696B61002063
:10190000BDE8F081802E04D1032F7FF67BAF002647
:1019100083E7102E01D1012FF7E7502E01D1072FB9
:10192000F3E7902EFBD0D02EF1D10D2FEDE74FF045
:101930008066002771E7D10605D5520601D5DB0880
:1019400071E79B086FE703EB4303F8E70000FF0331
:10195000002809DB4309012200F01F0002FA00F011
:101960006033024A42F82300704700BF00E100E004
:10197000B0F1402F10B54FF00003044612D10A4ACF
:10198000C2E90033C2E90233C2E90433C2E90633D3
:101990004FF080434FF48022C3F8202212200FF032
:1019A00025FD024B236310BD3C05002000B66DDB16
:1019B00030B501248C400D4DC461046245F82130DE
:1019C000036812F0100F14BF2146002123EA04031C
:1019D00012F0110F43EA0103036014BF8460C46076
:1019E00093074CBF4461846130BD00BF3C050020BB
:1019F0002DE9F0410F4DDFF8408006460024012715
:101A0000E1B230460FF0E7FC15F9011B0846FFF77D
:101A10009FFF0029A2BF4B0901F01F0107FA01F146
:101A200004F10104A8BF48F82310082CE8D1BDE850
:101A3000F08100BF3975010000E100E008B54FF00A
:101A400040200FF0C1FC084B1B6801460BB1002081
:101A500098474FF04020016811F0010101D10FF0CB
:101A6000BAFCBFF34F8F08BD3C05002008B54FF00E
:101A700040200FF0A9FC084B5B6801460BB1012028
:101A800098474FF0402003689B0702D401210FF0D4
:101A9000A2FCBFF34F8F08BD3C05002008B54FF0F6
:101AA00040200FF091FC084B9B6801460BB10220CF
:101AB00098474FF0402003685B0702D402210FF0E3
:101AC0008AFCBFF34F8F08BD3C05002008B54FF0DE
:101AD00040200FF079FC084BDB6801460BB1032076
:101AE00098474FF0402003681B0702D403210FF0F2
:101AF00072FCBFF34F8F08BD3C05002008B54FF0C6
:101B000040200FF061FC084B1B6901460BB104201B
:101B100098474FF040200368DB0602D404210FF001
:101B20005AFCBFF34F8F08BD3C05002008B54FF0AD
:101B300040200FF049FC084B5B6901460BB10520C2
:101B400098474FF0402003689B0602D405210FF010
:101B500042FCBFF34F8F08BD3C05002008B54FF095
:101B600040200FF031FC084B9B6901460BB1062069
:101B700098474FF0402003685B0602D406210FF01F
:101B80002AFCBFF34F8F08BD3C05002008B54FF07D
:101B900040200FF019FC084BDB6901460BB1072010
:101BA00098474FF0402003681B0602D407210FF02E
:101BB00012FCBFF34F8F08BD3C050020030C82B21E
:101BC000022B4FF0010000FA02F005D9074B5860D4
:101BD0001A680242FCD070479B0003F18043C3F8AF
:101BE0002001D3F800210242FBD0704700000440DE
:101BF000030C82B2022B4FF0010000FA02F006D96A
:101C0000084B98601A6830EA0202FBD070479B00CC
:101C100003F18043C3F84001D3F8002130EA020207
:101C2000FAD07047000004407FB5224B02466C4654
:101C300003F1080618685968254603C50833B342FE
:101C40002C46F7D118681B7928602B711388A3F2F2
:101C5000B271812928D89078411E0B2924D8117996
:101C6000172921D851793B291ED891793B291BD8B6
:101C7000990706D16424B3FBF4F104FB113189B256
:101C800039B94FF4C874B3FBF4F104FB11339BB2C0
:101C900013B91D238DF80230D37804AA104410F82C
:101CA000102C9A4200D313B9002004B070BD01205B
:101CB000FBE700BF3A20010070B51D4B88B002461B
:101CC00001AC03F1180618685968254603C50833A6
:101CD000B3422C46F7D11B882B80D3781488907898
:101CE000A3F52F21A1F6B62140F26D1303FB0413D7
:101CF00008A901EB400103EB940331F81C1C0B44D1
:101D0000A10703F1FF3502D1022898BF9D1E537928
:101D10001179C3EB03134FF461609B0000FB0133A7
:101D200090790344034800FB053008B070BD00BF44
:101D30004820010080510100F0B5284A85B06C466A
:101D400007460B4602F1080C2546106851682646E6
:101D500003C6083262453446F7D121491068306025
:101D60004FF46164B7FBF1F01279327101FB10712D
:101D7000421CB1FBF4F0187104FB10103C24B0FBC2
:101D8000F4F104FB11005971987140F2B27140F204
:101D90006D1019800446904219880CD3890704BF3E
:101DA0001D218DF802100121685C90420FD39970BB
:101DB000DA7005B0F0BD013189B211F0030FA2EB6A
:101DC0000002198014BF20464FF4B770E3E70131D9
:101DD0000D29A2EB0002E7D1EAE700BF3A2001009B
:101DE00080510100F8B50B4B0B4FD3F8F440D3F8FA
:101DF000F06000252640E30703D557F8253003B1EE
:101E00009847640802D001350A2DF4D1014BC3F87C
:101E1000F460F8BD005008406805002038B54FF068
:101E200080430C4604220546C3F824221D480FF0C7
:101E3000DDFAA37862782178DB00520002F0060216
:101E400003F078031343227A520202F4F0520B4358
:101E500013432B606379E2785B0143EA021343F09A
:101E60000C036B6049B9A37921796A685B0543EA81
:101E70000153134343F440236B60E3790A4A2B6513
:101E800000231360094A1360094A1360094A19467E
:101E900001330A2B42F8041BFAD1074B074A1A6098
:101EA000002038BD020001005C0500206405002010
:101EB000600500206805002090050020E51D000059
:101EC000F0B5354E9DF814703568092D62D8C1F310
:101ED000013EBEF1020F16D19B0105F1600203F431
:101EE000707300EBC2020B4353602C4B1A68012342
:101EF000934005F1600240F83230069B1D600135C9
:101F000035600020F0BDDFF898C0BEF1010FDCF8AD
:101F100000401FD1092C3DD8036813F0010F41EA9E
:101F200004014FEA840E00D177B992B28644CEF80C
:101F30000021CEF8002205F1600200EBC2025160E0
:101F40000134CCF80040D0E73F0107F010073943D7
:101F50001204EBE7092C1DD89B0103F47073234393
:101F60001943036813F0010F4FEA840300D15FB9EE
:101F700092B20344C3F80021C3F8002205F16003C4
:101F800000EBC3035960DBE73F0107F0100739435B
:101F90001204EEE70120B5E75C050020640500208F
:101FA000600500202DE9FF410F4689781646002282
:101FB0000446CDE902224068002900F0A580534A7A
:101FC000126802320A2A00F29F80C0F347100130E3
:101FD0000A9AB2FBF0F22068012E40F00100206066
:101FE00007D1606840F0100060605B00B2FBF3F264
:101FF00004E0002EF9D1B2FBF3F2013A63294FF06D
:10200000000502AB9CBF51434FF06408019398BF99
:10201000B1FBF8F82B464FF480510095204688BF5D
:1020200002F10208FFF74CFF03ABCDE90053424633
:102030002B464FF480512046FFF742FF029A236857
:10204000A06897F801E0012101FA02FC1FFA8CF365
:102050000343A3600B9B03981A608E453B782CD1F9
:10206000226D0EFA03F122EA010222650EFA00F057
:10207000DA007EB91444D4F8003543EA0C03C4F8FE
:102080000035D4F804351843C4F80405304604B0CC
:10209000BDE8F08122445B00D2F804150843C2F881
:1020A0000405626D0321994022EA01020EFA03FE43
:1020B0004EEA020262652846E9E7276D01FA03F25B
:1020C0003A43226501FA00F0DA0066B91444D4F804
:1020D000043543EA0C03C4F80435D4F8003518433A
:1020E000C4F80005D2E722445B00D2F80065304313
:1020F000C2F80005626D0320984022EA000201FA4E
:1021000003F313436365D6E70120C0E75C050020B5
:1021100008B5034B03481B689847BFF34F8F08BDB2
:1021200090050020005008402DE9F04192B006468D
:10213000154603AF0C46202200210AA898460FF04E
:10214000A0FB1422002138460FF09BFB06230893C6
:10215000AA00E4070F23934064F07F4408FA02F2D8
:1021600024EA0304144301234022CDE904230F93FE
:102170000A4B069308ABCDE901730994B369306843
:1021800001A998470A9A064B1340034340F209708D
:1021900008BF002012B0BDE8F08100BF5C0600203F
:1021A0000800F9FF2DE9FF414A4C05464FF00008B1
:1021B0000F46164641464FF4007220460FF061FB71
:1021C0006B6C012B02D84FF4E1600CE0B5F8903055
:1021D0005905F8D533463A4641462846FFF7A4FF4D
:1021E00020B140F2097004B0BDE8F0812B69012BE9
:1021F0005BD083B1022BE6D123681BBA23606368EE
:102200001BBA6360A3681BBAA360E3681BBAE360F0
:1022100023691BBA23612368ADF80E306368ADF8FB
:102220000A301A0CA368ADF80C20ADF806301A0C71
:10223000E368ADF808201A0CADF804201B02E27C1C
:102240009BB2134304AA02EB470232F80C2C324132
:10225000D207B8D54FEA870823FA08F303F00F0333
:10226000B342B0D133463A4601212846FFF75CFF1E
:102270000028B6D12B69012B26D03BB1022BA2D16D
:10228000E3681BBAE36023691BBA2361E368E27C5D
:102290001B029BB2134323FA08F808F00F0840F220
:1022A0001673B04518BF18469DE723685BBA2360D4
:1022B00063685BBA6360A3685BBAA360E3685BBAF8
:1022C000E36023695BBAA5E7E3685BBAE36023696F
:1022D0005BBADAE75C0600202DE9F843DFF860908E
:1022E00005460F46164640F20978AB69286839461C
:1022F0009847431E012B044604D97B689B6819EA62
:10230000030F13D095F8BC30023B012B0ED84023AD
:102310001322A96928680FF04CF970B91CB140F27A
:1023200029739C42E1D12046BDE8F883002C18BFF8
:102330004446002EF7D0013EF0E740F22974F8E75A
:102340000800F9FF70B58CB004461C22002104A8D7
:102350000FF097FA0D230293236C1B0403930123C0
:1023600009930C4B0B9302AD0026022269462046CE
:10237000CDE90065FFF7B0FF40B9049BDA05F4D55D
:10238000C3F34323072BF0D00CB070BD40F20970AB
:10239000FAE700BF0800F9FF10B58CB00446002131
:1023A000202203A800910FF06CFA0C230293032162
:1023B0000223CDE90813084B0B93012202AB6946B7
:1023C00020460193FFF788FF40F20973002818BFE9
:1023D00018460CB010BD00BF0800F9FF2DE9F04F02
:1023E00097B0CDE90212DFF8148105461C4601279B
:1023F00000260CB9204661E0029B03EB462A95F8C3
:102400003930002B5DD117B11AF0030F59D04FF4BA
:1024100000720021404604F1FF390FF032FA002724
:102420000124CDF804800023194628220CA8CDE908
:1024300005330DF11C0B0FF024FA0023194614226A
:1024400058460FF01EFAD5F8B830B3F5007F33D3F5
:102450006B6AB3F5007F2FD32846FFF773FF58BB95
:102460004FF40073CDE90834019B0A9301239C4289
:102470008DF81D3014BF12231123AA6C0C93039BFB
:10248000920733440D935CBF5B020D931A4B159377
:1024900001220CAB05A928461392CDE905B3FFF73D
:1024A0001BFF48B9099B012B19D99DF81D30B3B901
:1024B0002846FFF771FF90B140F2097017B0BDE8F0
:1024C000F08FAB6AA34236BFA4EB03094FF00009BB
:1024D0001C46002F14BF534643460193A3E795F8CB
:1024E0003930264433B92FB94FF400724146504673
:1024F0000FF0C5F94C467CE70800F9FF5C060020A8
:102500002DE9F04F95B0CDE90012DFF814910546A2
:102510001C4601274FF000080CB9204663E0009BE1
:1025200003EB482695F83930002B5FD10FB1B00787
:102530005CD031464FF4007248460FF0A0F9384E97
:1025400004F1FF3A002701240023282219460DEB4D
:102550000200CDE903330DF1140B0FF092F90023C3
:102560001946142258460FF08CF9D5F8B830B3F557
:10257000007F36D36B6AB3F5007F32D32A68936C41
:102580009905FCD42846FFF7DDFE50BB4FF40073DD
:10259000CDE9063401239C428DF8153014BF192370
:1025A0001823AA6C0A93019B0996434492070B9344
:1025B0005CBF5B020B931B4B139301220AAB03A975
:1025C00028461192CDE903B3FFF786FE48B9079B71
:1025D000012B17D99DF81530A3B92846FFF7DCFE6B
:1025E00080B140F2097015B0BDE8F08FAB6AA3422C
:1025F00036BFA4EB030A4FF0000A1C46002F08BFA9
:102600004E46A1E795F83930A04433B92FB94FF4BD
:102610000072394648460FF034F954467CE700BF53
:102620005C0600200800F9FF2DE9F04190F83830F1
:1026300096B00446002B00F02A83002383640068D0
:102640003C4A8361616800F09DFB2546E06355F8D4
:102650001C0B64210EF02FFF294620680EF05BFF53
:10266000A16920680EF064FF014628B140F213759D
:10267000284616B0BDE8F081012384F8BF300590EC
:1026800020220EA80FF0FDF84FF4D5734FF0080E7E
:10269000CDE90CE30CAE092313930696642540F2B2
:1026A0000C78A369206805A998470746002834D10B
:1026B0009DF83830AA2B18BF4746013D01D0002FA6
:1026C000EFD107AD3A461C4928460DF0C9FB4FF63D
:1026D000FF734FF0000CCDE9013C142300930F224F
:1026E000294616480FF040F8D7B9A36C144F43F0B1
:1026F0000803A364002120220EA8079169600FF04F
:10270000C0F82923CDE90C370423139340F2E937AD
:10271000013F17D140F21475AAE740F20977CCE7E0
:10272000A16920680EF004FF00289FD14FF44017E4
:10273000E0E700BF801A0600B5790100000000A0A4
:10274000000030400022A169206800F091FB0028C1
:10275000DED1CDE90706A3692068294698470028FD
:10276000D8D10E9B002BD3DA5F0048BFA26C636701
:1027700044BF42F00202A264D80142BFA26C42F000
:102780002002A264A36C990600F1FD80002124229E
:102790000DA807914FF003080FF073F802230C9374
:1027A000CDF84C800896A3692068294698470746CB
:1027B000002840F0F38010220EA904F14C000FF025
:1027C0005EF8119B84F87C301A0E84F878201A0A7F
:1027D000109B0F99A4F87A201A0E84F87D201A0C09
:1027E00084F87E2084F880301A0A0B0E84F8813039
:1027F0000E9B84F87F201A0E42EA0122C3F30B23BA
:10280000C4F88420A4F88830242239460DA80797FC
:102810000FF037F8082313932946CDF83080089637
:10282000A369206898470146002840F0BA800E9FAF
:1028300007903B0C236420220EA83F0C0FF021F8D8
:102840003F0409230C930D97CDF84C800896A3699B
:10285000206829469847002840F0ED8010220EA9F4
:1028600004F15C000FF00BF8119BBDF84420990FA8
:102870001B0C84F88D30109B84F88C1052BAA4F88D
:102880008E201A0DA4F890201A0442BFB4F89420A8
:1028900042F00102A4F894205F0442BFB4F89420EF
:1028A00042F00102A4F894209A0442BFB4F89420A4
:1028B00042F00402A4F89420DF0448BFB4F8942046
:1028C000C3F3034044BF42F00802A4F8942084F804
:1028D00092000F9A002967D0012900F093805104DB
:1028E00042BFB4F8943043F01003A4F89430C2F31C
:1028F000C61384F8A1300E9B02F07F0284F8A22058
:10290000C3F3826284F8A320C3F3835284F8A42023
:102910009A0242BFB4F8942042F04002A4F89420F6
:102920001F0442BFB4F8942042F08002A4F894201F
:10293000580448BFB4F89420206844BF42F4807221
:10294000A4F89420990448BFB4F89420A16944BF26
:1029500042F40072A4F89420DA0448BFB4F894203A
:10296000C3F3812344BF42F48062A4F8942084F826
:10297000A530226C012300F057FA074600285DD0ED
:102980004FF4E26574E6A16920680EF0E7FD0028C7
:1029900040F08081032384F8BF30F7E640F20D75E4
:1029A00066E640F20E7563E640F6FC7101EA8303C9
:1029B000C2F3C26184F89C10C2F3026184F89D10D6
:1029C000110D01F00E0184F89E10C2F3824143EA1A
:1029D000927384F89F10C2F3C231C4F8983084F81F
:1029E000A010013302318B4009284FF40071C4F864
:1029F000B430C4F8B8103FF472AF83405B0AC4F837
:102A0000B4306CE71B044FF4007103F47C1343EA09
:102A10001243C4F8B8104FF6FE718B4288BFA16C08
:102A2000C4F8983088BF41F0100103F1010388BF5A
:102A3000A1649B02E3E740F20F7519E60146CDE978
:102A400005002822DFF85C8230460EF01AFF394676
:102A5000142228460EF015FF39464FF40072404606
:102A60000EF00FFF226CA169206800F001FA4746C2
:102A7000002840F0F680332308220C930123CDE98F
:102A8000082313930D90A369CDF82880CDE905564E
:102A900005A920689847824B0E9A1340034340F0E3
:102AA000E0802369012B00F0C5805BB1022B40F070
:102AB000D880D8F800301BBAC8F80030D8F80430F5
:102AC0001BBA7B607749082204F16C000EF0D7FE38
:102AD0003B68180242BFB4F8AA1041F00101A4F803
:102AE000AA10C3F30740C3F3025184F8AC1000F0FE
:102AF0000F0184F8AD10190444BFB4F8AA1041F0D6
:102B000002014FEA137248BFA4F8AA10990A01F013
:102B10001E0184F8A820C3F30362DBB284F8AE1070
:102B200003F0030184F8AF10012A796884F8A92022
:102B3000C4F8B01000F08A80002A00F08480022AD5
:102B400000F08680460742BFA26C42F00402A264F5
:102B5000DD0742BFA26C42F08002A264980703D551
:102B6000A36C43F04003A364D4E900014E4A00F093
:102B700009F9E36AE063D90624D5A36C5A0721D585
:102B80000CAE002128223046CDE907110EF079FE67
:102B9000226CA169206800F06BF9002864D106233B
:102BA0000C93012502230D93CDE90706A369139524
:102BB00007A9206898473A4B0E9A1340034353D114
:102BC00023689D6194F8BD2002212046FFF7EAFAB0
:102BD00094F8BE2003212046FFF7E4FA4FF4007278
:102BE000A169206800F06CF90546002855D194F8D9
:102BF000BF30032B3FD0E36ADB077FF539AD0146D9
:102C000001222046FFF7CEFA064680BB012384F856
:102C1000BC30264AD4E9000100F0B4F8E06394F82F
:102C2000BC30023B012B29D9002E3FF421AD40F2EC
:102C30001B751DE5D8F800305BBAC8F80030D8F82D
:102C400004305BBA3DE7012262647BE70222FBE7C6
:102C500004226264B4F8AA2097077FF573AF0822B4
:102C6000F2E740F2117503E540F2127500E5B0F5A8
:102C7000E16FD4D1FCE440F21B76D0E7402313226D
:102C8000A16920680EF095FC0028CDD0CFE740F276
:102C90002E75EDE440F22575EAE440F20A75E7E4AA
:102CA0000800F9FF5C06002040787D0180F0FA0200
:102CB000022808B506D10448FFF722FC003018BFEF
:102CC000012008BD0420FCE794050020022808B577
:102CD00006D10448FFF782FB003018BF012008BD71
:102CE0000420FCE794050020022817D1032915D8F9
:102CF000DFE801F008020A0F82B1094BD3F8B430C3
:102D0000136000210846704742B1054BD3F8B83034
:102D1000F6E71AB1024B93F8A130F1E70421F1E78D
:102D200094050020022810B512D10A4C94F83830CE
:102D300073B120460EF0A1FB2046FFF775FC40B1B1
:102D400020460EF094FBC022002120460EF099FD93
:102D5000012010BD94050020094A4FF080439042A5
:102D6000D3F8603407D9012916BF43F0004343F07C
:102D7000810343F41F034FF08042C2F86034704770
:102D80007FF0FA02F0B505468BB00E4617460021DB
:102D9000282268460EF075FD2B6923F001032B6194
:102DA0004FF0FF32174B0893694628460EF06CFB34
:102DB000B74224D2B7423C4628BF3446B6FBF4F4AF
:102DC00001346408E3B2AB604FF0FF326946284635
:102DD0000EF05AFB2B6943F0010369462B614FF05B
:102DE000FF3228460EF050FB21463846FFF7B4FF6D
:102DF00014B16400B6FBF4F630460BB0F0BD00240D
:102E0000E0E700BF0020200008B5044A044B116829
:102E10001B6804489847BFF34F8F08BD5406002035
:102E20005806002000B00940F0B58DB006460D46AA
:102E300014460021242203A81F4600910EF021FD14
:102E4000072302931FB1240401230394099302ABC7
:102E5000694630460193A847049A044B1340034344
:102E600040F2097008BF00200DB0F0BD0800F9FF66
:102E700070B58CB0064614460D462022002104A8E9
:102E800000910EF0FEFC37230293012324040993E2
:102E9000694602AB304603940193A84758B9049A97
:102EA000064B13403BB912F0200F40F20C7308BFE1
:102EB00018460CB070BD40F20970FAE70800F9FF3F
:102EC00070B58CB005460C4616460021202204A899
:102ED00000910EF0D6FC1023CDE9023601230993B0
:102EE000694602AB28460193A047049A044B13405D
:102EF000034340F2097008BF00200CB070BD00BF52
:102F00000800F9FF024A136801331360704700BFDD
:102F10005C080020044A11680023834200D37047F4
:102F200013685B1AF9E700BF5C0800202DE9F04741
:102F3000002840D000293ED0002A3CD003681B0561
:102F40000AD5036813F4804303D0B2FBF1F2013ACF
:102F500002620020BDE8F0870A274FF0FF364FF0ED
:102F60000F0CDFF85CA007FB02F94FEA011EB04628
:102F70006546B9FBFEF4053C544505F101030ED846
:102F8000B4FBF7F404FB0333B2FBF3F3994234BF11
:102F90005B1ACB1A43453EBF2646AC469846013DD8
:102FA000072DAEEB010EE4D1B6F5803F05D2C0F897
:102FB00028C00662CDE70420CCE741F25160C9E7A2
:102FC000FFFF090008B50A4BD3F8882042F47002CD
:102FD000C3F88820074A9A604FF080430022C3F864
:102FE00004233822C3F820220EF098FB08BD00BF4E
:102FF00000ED00E00000000070B592B0FDF784FE27
:103000004FF080430124D3F88023D3F8B8138DF810
:10301000064012264FF47A45C9B2D2B24FF02A0CBC
:10302000CDE9065622444825B0FBF2F00A19B0FB60
:10303000F2F0184AB2FBF0F0821DCDE908C54FF05E
:10304000410E00230C920F953C22134DADF8043035
:10305000CDE90DE2ADF8083018300C2223230B9097
:10306000109203930222092301A928468DF84420D7
:103070008DF80A208DF810308DF814400A96FEF76E
:103080009DF9234602AA05A92846FEF7BFF912B00A
:1030900070BD00BF00CA9A3B0010084010B58AB04E
:1030A00001A80EF062F9254A254B264CCDE90123F3
:1030B0000F238DF80C304FF41673ADF80E304FF42B
:1030C0008273ADF8103017238DF812304FF4C053CF
:1030D000ADF814301C4B069306238DF820304FF4C6
:1030E0008063ADF8223042F20103ADF824300EF0D7
:1030F00046F801A902462046FEF774FBA36923F4B3
:10310000405343F48053A361204608210EF03EF95A
:103110000E4B4FF400125A60D4F8003C23F0010328
:10312000C4F8003CA36943F00103A361A369002034
:1031300043F40063A3610AB010BD00BF005A6202ED
:1031400020030F0400300840000000A000E100E070
:1031500010B50F4C88B005A80EF076F905A92046E9
:10316000FEF75CFE40F20513ADF80C3005238DF838
:103170000E30FDF729FE04ABCDE9000301224FF428
:103180007A7303A92046FEF70DFF08B010BD00BFFB
:1031900000500840044B012283F86A2083F8522033
:1031A00083F86220704700BF00C00840F0B54FF0C0
:1031B00080451023684EC5F8303689B06748FDF762
:1031C000E1FC30460BF07CFF3046FDF7B9FE47F6D8
:1031D000E06240F202230024CDE90123422142F6BD
:1031E000662303274FF48270CDE9031306940596F6
:1031F0000797FDF7C7FC01A8FDF7DCFE5848FDF76F
:10320000E9FC2246012120200DF0A7FF21460122E2
:1032100025200DF0A2FF2246C82125200DF09DFF9C
:10322000214601222A200DF098FF224639462A2005
:103230000DF093FF214601222F200DF08EFF224634
:1032400004212F200DF089FF214601222E200DF0B0
:1032500084FF224602212E200DF07FFF214601220D
:1032600004200DF07AFF0421224608460DF075FF78
:103270002146012205200DF070FF22460121052084
:103280000DF06BFF214601222D200DF066FF224636
:1032900001212D200DF061FF214601222C200DF08F
:1032A0005CFF224639462C200DF057FF2D48FDF7D4
:1032B00069FC0123EB6440F21F20FDF763FC40F240
:1032C0000920FDF75FFC40F21E40FDF75BFC4FF468
:1032D0008670FDF757FC40F20D10FDF753FC4FF4DC
:1032E0008770FDF74FFC40F20F10FDF74BFC4FF4D9
:1032F0008870FDF747FC40F21110FDF743FC4FF4D6
:103300008970FDF73FFC40F21310FDF73BFC4FF4D2
:103310008A70FDF737FC40F21510FDF733FC4FF4CF
:103320004770FDF72FFC40F21D10FDF72BFCD5F880
:10333000883323F0FF0343F01303C5F8883340F2CA
:103340001B20FDF71FFCD5F880323B43C5F88032C7
:10335000054B1E6009B0F0BD000E270700111000DC
:1033600000D8B805001130002000002001490248B3
:103370000DF0A6BE3C1F010000000A4010B50B4C2A
:103380002046FDF7CFFF0023C4F80C3F2046012163
:103390000DF076FF012220461146054B0DF04DFF42
:1033A00020460221BDE810400DF06DBF000009402D
:1033B0002400002008B505480EF018F8044A054915
:1033C0000548BDE808400EF02BB900BF0B00010016
:1033D000001BB7004C1F01000060084008B50548FD
:1033E0000EF004F8044A05490548BDE808400EF00F
:1033F00017B900BF0C000100001BB7005C1F0100E3
:103400000070084008B505480DF0F0FF044A054972
:103410000548BDE808400EF003B900BF0D000100EB
:10342000001BB7006C1F01000080084008B505486C
:103430000DF0DCFF044A05490548BDE808400EF0E0
:10344000EFB800BF0E000100001BB7007C1F010099
:103450000090084008B505480DF0C8FF044A05492A
:103460000548BDE808400EF0DBB800BF0F000100C2
:10347000001BB7008C1F010000A0084008B50548DC
:103480000DF0B4FF044A05490548BDE808400EF0B8
:10349000C7B800BF10000100001BB7009C1F01004F
:1034A0000060094008B505480DF0A0FF044A054931
:1034B0000548BDE808400DF026BF00BF120001001E
:1034C000001BB700AC1F01000080094008B505488B
:1034D0000DF08CFF044A05490548BDE808400EF090
:1034E0009FB800BF0E000200001BB700B81F01000C
:1034F0000090094008B505480DF078FF044A0549D9
:103500000548BDE808400EF08BB800BF0F00020070
:10351000001BB700C81F010000A0094010B54FF004
:103520004020FEF725FA164B102200214FF04020D4
:10353000FEF73EFA134B022201214FF04020FEF726
:1035400037FA114B102202214FF04020FEF730FADB
:103550000E4B102203214FF04020FEF729FA0C4BAE
:10356000102204214FF04020FEF722FA094B1022CE
:1035700005214FF04020BDE81040FEF719BA00BF0A
:10358000E1020000ED0200003704010039040100EF
:10359000470401004904010001480DF030BF00BF9D
:1035A00000C0024001490248FEF738BC41750100E5
:1035B000005008404FF080434FF40062F0B5C3F86C
:1035C00020224FF40052C3F820224FF48042C3F867
:1035D00020224FF40042C3F820224FF48032C3F877
:1035E00020224FF40032D94CC3F820224FF400724D
:1035F000A9B00025C3F828224FF48062C3F828221E
:1036000029466B4620460B22ADF800500DF05DFEBA
:1036100001AB294620461D22ADF804500DF055FEA1
:1036200002AB294620461F22ADF808500DF04DFE92
:1036300003AB2A4620460121ADF80C500DF045FEA3
:1036400004AB204603220121ADF810500DF03DFEE1
:1036500005AB2046162201210127ADF814500DF0CC
:1036600034FE06AB204605220221ADF818700DF09D
:103670002CFE07AB204607220221ADF81C500DF0AE
:1036800024FEB34B20461E88ADF8206008AB0B2209
:1036900002210DF01AFE09AB20460C220221ADF8E2
:1036A00024600DF012FE0AAB204612220221ADF872
:1036B00028600DF00AFE0BAB204613220221ADF864
:1036C0002C700DF002FE0CAB204614220221ADF846
:1036D00030500DF0FAFD0DAB20461A220221ADF854
:1036E00034700DF0F2FD0EAB20461B220221ADF826
:1036F00038700DF0EAFD0FAB204602220321ADF831
:103700003C600DF0E2FD032210AB11462046ADF8FF
:1037100040600DF0DAFD11AB204604220321ADF824
:1037200044600DF0D2FD12AB20460A220321ADF811
:1037300048700DF0CAFD13AB20460C220321ADF8F2
:103740004C600DF0C2FD14AB20460D220321ADF8F4
:1037500050500DF0BAFD15AB20460E220321ADF8F6
:1037600054500DF0B2FD16AB20460F220321ADF8E8
:1037700058600DF0AAFD17AB204612220321ADF8C8
:103780005C500DF0A2FD18AB204613220321ADF8CA
:1037900060700DF09AFD19AB204614220321ADF89C
:1037A00064600DF092FD1AAB204617220321ADF89C
:1037B00068500DF08AFD1BAB20461E220321ADF898
:1037C0006C700DF082FD04221CAB11462046ADF852
:1037D00070600DF07AFD1DAB204605220421ADF886
:1037E00074500DF072FD1EAB204606220421ADF888
:1037F00078500DF06AFD1FAB20460A220421ADF877
:103800007C500DF062FD20AB20460D220421ADF866
:1038100080500DF05AFD21AB204611220421ADF855
:1038200084700DF052FD22AB204612220421ADF827
:1038300088500DF04AFD23AB204616220421ADF836
:103840008C500DF042FD24AB20461F220421ADF820
:1038500090500DF03AFD25AB204602220521ADF82F
:1038600094500DF032FD26AB204609220521ADF81B
:1038700098500DF02AFD27AB20460A22A4F5072414
:103880000521ADF89C500DF020FD294620464FF053
:1038900040620DF05CFD394620462E4A0DF057FD82
:1038A00020462D4A02210DF052FD20462B4A0321CD
:1038B0000DF04DFD20462A4A04210DF048FD20461A
:1038C000284A05210DF043FD274B284A196811406D
:1038D00041F4807119605968114041F48071596058
:1038E000996A40F20115114029439962D96A114041
:1038F00041F48071D962196B114029431963596BE6
:10390000114041F480715963996B114041F4807109
:103910009963D96B6FF4A0700744394041F49371F7
:10392000D963196C114041F4837119645C6C1049BE
:1039300040F206500C4004435C649C6C0C40044311
:103940009C64DC6C0C400443DC6413E000C0084061
:103950004A7501001E00000C0D00000C0E00000C4A
:103960001600000C0100000C00100040F0FEFFFFEC
:10397000F0FAFFFF9C680C4004439C601C6D0C40F7
:1039800004431C655C6D0C4004435C659C6D1440F5
:1039900044F480749C65DC6D144044F48374DC65ED
:1039A0001C6E144044F483741C665C6E144044F432
:1039B00083745C669C6E144044F483749C66DC6E75
:1039C000144044F48374DC661C6F144044F4837424
:1039D0001C675C6F144044F480745C67DC680C40C6
:1039E0000443DC609C6F144044F480749C67DC6F7B
:1039F000144044F48074DC671C690C4004431C616F
:103A00005C690C4004435C619C690C4004439C610C
:103A1000DC690C400443DC611C6A0C4004431C62FA
:103A20005C6A0C4004435C62D3F88040144044F468
:103A30008074C3F88040D3F8844014402C43C3F80A
:103A40008440D3F8A8400C400443C3F8A840D3F8FE
:103A5000AC400C400443C3F8AC40D3F8B0400C4039
:103A60000443C3F8B040D3F8B4400C400443C3F857
:103A7000B440D3F8B8400C400443C3F8B840D3F87E
:103A8000BC400C400443C3F8BC40D3F8C0400C40D9
:103A90000443C3F8C040D3F8C4400C400443C3F807
:103AA000C440D3F8C8400C400443C3F8C840D3F81E
:103AB000CC400C400443C3F8CC40D3F8D0400C4079
:103AC0000443C3F8D040D3F8D4400C400443C3F8B7
:103AD000D440D3F8D840144044F48074C3F8D8409C
:103AE000D3F8DC400C400443C3F8DC40D3F8E0409A
:103AF0000C400443C3F8E040D3F8E4400C400443D6
:103B0000C3F8E440D3F8E8400C400443C3F8E8406D
:103B1000D3F8EC400C400443C3F8EC40D3F8F04039
:103B20000C400443C3F8F040D3F8F4400C40044385
:103B3000C3F8F440D3F88C40144044F48074C3F8C4
:103B40008C40D3F8F8400C400443C3F8F840D3F855
:103B5000FC400C400443C3F8FC40D3F890400C40B8
:103B60000443C3F89040D3F894400C400443C3F896
:103B70009440D3F898400C400443C3F89840D3F8DD
:103B80009C400C400443C3F89C40D3F8A0400C4038
:103B90000443C3F8A040D3F8A4400C400443C3F846
:103BA000A440D3F80041144044F48174C3F80041A8
:103BB000D3F80441144044F48174C3F80441D3F8A9
:103BC0002841144044F48174C3F82841D3F82C41AF
:103BD000144044F48074C3F82C41D3F830411440AD
:103BE00044F48074C3F83041D3F8346140F2015496
:103BF0000E402643C3F83461D3F838610E402643A3
:103C0000C3F83861D3F83C610E402643C3F83C61E9
:103C1000D3F840610E402643C3F84061D3F84861B1
:103C2000164046F48076C3F84861D3F84C611640DC
:103C300046F48076C3F84C61D3F8086116402E43F1
:103C4000C3F80861D3F85061164046F48076C3F893
:103C50005061D3F854610E402643C3F85461D3F841
:103C600058610E402643C3F85861D3F85C610E409A
:103C70002643C3F85C61D3F860610E402643C3F865
:103C80006061D3F864610E402643C3F86461D3F8E1
:103C90006861164046F48076C3F86861D3F86C61B9
:103CA000164046F48076C3F86C61D3F870610E401C
:103CB0002643C3F87061D3F874610E402643C3F8FD
:103CC0007461D3F80C61164046F48176C3F80C6138
:103CD000D3F878610E402643C3F87861D3F87C614D
:103CE0000E402643C3F87C61D3F81061164046F4B9
:103CF0008176C3F81061D3F81461164046F48076DB
:103D0000C3F81461D3F81861164046F48176C3F8FD
:103D10001861D3F81C61164046F48076C3F81C6124
:103D2000D3F82061164046F48176C3F82061D3F8B9
:103D30002461164046F48176C3F82461D3F880618B
:103D40000E402643C3F88061D3F884610E402643B9
:103D5000C3F88461D3F8A861164046F48076C3F8AE
:103D6000A861D3F8B061164046F48076C3F8B0611C
:103D7000D3F8B461164046F48076C3F8B461D3F842
:103D8000B861164046F48076C3F8B861D3F8BC61D8
:103D9000164046F48076C3F8BC61D3F8C061164083
:103DA0002E43C3F8C061D3F8C46116402E43C3F854
:103DB000C461D3F8C861164046F48076C3F8C86180
:103DC000D3F8CC61164046F48076C3F8CC61D3F8C2
:103DD0008861164046F48076C3F88861D3F8D061D4
:103DE000164046F48076C3F8D061D3F8D4613E40E3
:103DF000C3F8D461D3F8D8613740C3F8D871D3F889
:103E0000DC61164046F48076C3F8DC61D3F8E461E7
:103E10000E400643C3F8E461D3F8E8610E40064360
:103E2000C3F8E861D3F8EC610E400643C3F8EC61D7
:103E3000D3F8F0610E400643C3F8F061D3F8F461A3
:103E40000E400643C3F8F461D3F88C61164046F483
:103E50008076C3F88C61D3F8F861164046F480761A
:103E6000C3F8F861D3F8FC61164046F48176C3F8D4
:103E7000FC61D3F89061164046F48076C3F89061F7
:103E8000D3F894610E402643C3F89461D3F8986147
:103E90000E402643C3F89861D3F89C610E40264338
:103EA000C3F89C61D3F8A0610E402643C3F8A0611B
:103EB000D3F8A4610E403443C3F8A441D3F80042C0
:103EC0000C400443C3F80042D3F8044221400843A5
:103ED000C3F80402D3F82812114041F48071C3F8EA
:103EE0002812D3F8301211402943C3F83012D3F806
:103EF0003412114041F48071C3F83412D3F83812EF
:103F000011402943C3F83812D3F83C0240F20311A0
:103F100010400843C3F83C02D3F840021040084365
:103F2000C3F84002D3F84402104040F48070C3F854
:103F30004402D3F84802104040F48070C3F84802AD
:103F4000D3F84C0210402843C3F84C02D3F80802BF
:103F5000104040F48170C3F80802D3F850021040BA
:103F60002843C3F85002D3F8540210400843C3F862
:103F70005402D3F85802104040F48070C3F858023D
:103F8000D3F85C0210402843C3F85C02D3F8600207
:103F900010400843C3F86002D3F86402104008439D
:103FA000C3F86402D3F86802104040F48170C3F88B
:103FB0006802D3F86C0210402843C3F86C02D3F8AF
:103FC0007002104040F48270C3F87002D3F874029B
:103FD000104040F48270C3F87402D3F80C02104011
:103FE00040F48170C3F80C02D3F8780210402843E3
:103FF000C3F87802D3F87C02104040F48070C3F814
:104000007C02D3F81002104040F48070C3F8100214
:10401000D3F81402104040F48070C3F81402D3F8AF
:104020001802104040F48070C3F81802D3F824023C
:10403000104040F48170C3F82402D3F8800210408D
:1040400040F48270C3F88002D3F88402104040F438
:104050008270C3F88402D3F8A802104040F4807044
:10406000C3F8A802D3F88802104040F48070C3F867
:104070008802D3F88C0210402843C3F88C02D3F88E
:10408000900210400543C3F89052D3F894021040B8
:1040900040F48170C3F89402D3F89802104040F4C1
:1040A0008170C3F89802D3F89C0210400843C3F80B
:1040B0009C02D3F8A00210400143C3F8A012D3F829
:1040C000A4120A4042F48072C3F8A42229B0F0BDC1
:1040D00070B5244CA36843F08063A360224B1B7827
:1040E000012B32D1214D214A092120460DF007F83C
:1040F0000028F8D01E4A1F481368296840F823108A
:1041000001331D48194E174C0160B3F5FA6FA8BF73
:104110000023136032460A2120460CF0F0FF0028ED
:10412000F8D01649164A0B68286842F8230015484B
:10413000002240F82320144840F823200133B3F52F
:10414000FA6F28BF13460B6070BD104B1B78012B14
:10415000FAD1094A116840F6AA229142C4BF0C4A1A
:104160001370F1E700000A400DCA0020A4270020C8
:10417000B42700206408002060080020A8C40020A4
:10418000B4560020F47500203495002034CE002071
:1041900038CA0020092838B50CD1084C084DA3684E
:1041A00043F08063A3602A46092120460CF0A7FF54
:1041B0000028F8D0024B186838BD00BF00000A4044
:1041C000A427002030B5164B5B7A012B08D1154B84
:1041D000FF221A7000225A709870DA701A7130BD7E
:1041E000022BFCD1104A114C136811492578013378
:1041F000136041F8230035B9B3F57A7FEFD101237D
:1042000015602370EBE740F6B8318B42E7D1094BDC
:10421000002111601A78012A08BF1970DFE700BF7A
:104220006F0100208BC900209856002018CA00207A
:10423000B827002033CE00202DE9F041AB4A537857
:10424000E82B14464DD007D8CD2B00F0A081E72BEA
:1042500000F06582BDE8F081F42B00F0A881F92B15
:1042600000F0BE82F32BF5D19278960642BFA04BA8
:1042700001211970D50642BF9D4B02211970237987
:10428000980642BF9A4903200870D90607D5984975
:104290000420087097480021017097480160E07879
:1042A000964902F00F0263280A7009D89449954D87
:1042B0000A68A8540132B2F5FA7F28BF00220A60CA
:1042C000914A03F00F0111706279C3F38013134315
:1042D000FF2B1CBF884A1360A379642BBAD8854A88
:1042E000C4E09078894BC0F380121A702279884B11
:1042F000C2F380111970A3798649C3F380150D703C
:104300004111854D01F001062E705511834E05F0C7
:10431000010737702943824EC3F34017C90737702E
:104320004ED480490E7806F1FF3CDCF1000646EBE6
:104330000C067D4994F805C00E70D2017B49E578E2
:104340000F6802F4786242EA0C02DFF828C2C0016A
:104350004CF82720DB01E27900F4786003F47863FD
:1043600013432843724A734D42F8273045F827001B
:10437000714F88467B7A2EBB13B1C0B2FFF722FF84
:10438000D8F800300133B3F5FA6F28BF0023C8F81E
:104390000030237A1A09062A3FF65CAF01A151F8D2
:1043A00022F000BFD9430000074400002B44000066
:1043B000394400005542000055420000714400009D
:1043C0000126B6E7002BDBD00920FFF7E3FED8F883
:1043D000003045F82300D3E7627A584803F001051E
:1043E00042EAC512016852B213F0020F0346544864
:1043F00018BF524242540131B1F5FA7F2ABF002260
:1044000019601A6026E71F0742BF4E4A012111704A
:104410005E0742BF4B4A0221117003F00102637A2A
:1044200043EAC213484A136014E703F00302637AB5
:1044300043EAC213454AF6E73A4AC3F3C00313708E
:10444000434A637A117803F0030291421EBF414A46
:104450000321117040490978C3F380028A421EBFCC
:104460003C4A032111703D4AC3F3C0031370F1E6C7
:104470007A78022A40F080803949087803F00301F5
:10448000884202D0334901200870013AC3F3810306
:104490009A421EBF2F4B01221A70324A637A11785A
:1044A00003F0030291421EBF2A4A022111702E49D5
:1044B0009A10097802F0010088421EBF25490220A7
:1044C00008702A49097802F002028A421EBF214A76
:1044D000022111701D0653D4254A1278C3F300132C
:1044E00093423FF4B7AE1B4B03225EE09CC9002011
:1044F0002FCC002033CC00208CC4002032CC0020F4
:10450000B4C4002034CC00202ECC002098C9002058
:1045100099C900209AC9002095C9002096C9002099
:10452000CEC900209BC90020F3C90020A8C40020E8
:1045300034950020B45600206F010020B0C4002044
:1045400039CA0020F9C90020A0C4002098B4002076
:1045500032CA002002CA002030CA002097C90020B9
:10456000B10100200CCA00200ECA00207B010020EF
:104570007C010020F4750020012A86D183497CE764
:10458000DC063FF567AE824B1B78022BA9E79378D8
:10459000002B7FF45FAE7F49D378097803F00103E5
:1045A000994200F03F827C4B0A221A7052E606289C
:1045B000937834D1C3F38101D37843EAC1137749A7
:1045C0000B605379580642BF754A04211170C3F33A
:1045D0000112012A02D0022A00D00AB971490A70D8
:1045E00003F00703033B042B3FF634AE01A252F85D
:1045F00023F000BF094600000F46000055420000AE
:104600001546000019460000674B0122CDE7664BB6
:104610000222CAE7644B67E7634B0422C5E70A2816
:1046200058D15279142A0FD8DFE802F00B0E2D0B67
:104630000E0E303336393C3F4245484B0E0E0E4E7F
:1046400051005A4A00211170A279C3F3810142EA54
:10465000C11257490A6003F00302E37943EAC21327
:10466000544A1360E378227AC3F3810142EAC1120B
:1046700051490A602279C3F3021342EAC3134F4A35
:1046800013604F4BC1E7494A0D21DCE7474A01213E
:10469000D9E7464A0221D6E7444A0321D3E7434AF1
:1046A0000421D0E7414A0521CDE7404A0621CAE767
:1046B0003E4A0721C7E73D4A0821C4E73B4A092192
:1046C000C1E73A4A0A21BEE7384A0B21BBE7374A1D
:1046D0000C21B8E73B4A1278012A12D052B1022AC3
:1046E00016D0D90642BF2E4A0421117003F00F03E1
:1046F000354ABBE613F0600FF3D0344A182111702D
:10470000EFE7C3F34112022AEBD0304A1D21F6E74E
:10471000C3F34112012AE4D02C4A1921EFE7907823
:10472000420642BF1E4B05221A70830642BF1C4B35
:1047300005221A70C0F3C103022B254A04D0032BB3
:1047400002D0012B18BF002325791370C5F3C103D4
:10475000022B204A04D0032B02D0012B18BF0023C8
:104760001370E37800F0070043EAC0100DF03CFB43
:10477000194BC3E90001607905F0070540EAC5104F
:104780000DF032FB154BC3E9000163E56E0100201B
:104790007C010020F6C9002002CA00209C5600209F
:1047A00035CE00201ECA002022CA00201FCA0020C9
:1047B00088C4002080C4002084C400207CC4002061
:1047C0001CCA002032CA002020CA002004CA0020CF
:1047D00036CE002037CE0020200400202804002000
:1047E0000A2840F0898091789048D278036801F0D7
:1047F0001F0542EAC5128E4D45F82320A279E579BE
:1048000002F01F0645EAC6158A4E46F823500133CA
:10481000B3F5FA7F28BF002303602379C3F3411067
:10482000012831D002283DD070B9607903F01F0310
:1048300040EAC313B3F5487044BF6FF4467C03EB02
:104840000C007D4BC0101860237AC3F3411001287F
:1048500036D0022842D068B9607A03F01F0340EADC
:10486000C313B3F5487044BF6FF446755819724BC3
:10487000C0101860490602D5704B0121197053060B
:104880007FF5E8AC6E4BC0E6607903F01F0340EAA9
:10489000C313B3F5487044BF6FF44677D819C010FE
:1048A000684BD0E7607903F01F0340EAC313B3F508
:1048B000487044BF6FF446769819C010624BC2E747
:1048C000607A03F01F0340EAC313B3F5487044BF96
:1048D0006FF446741819C0105A4BCAE7607A03F097
:1048E0001F0340EAC313B3F5487044BF6FF446702A
:1048F0001818C010544BBCE70B287FF4ABAC917870
:104900004A48D278036801F01F0542EAC512484DB3
:1049100045F82320A279E57902F01F0645EAC6157D
:10492000444E46F823500133B3F5FA7F28BF0023E5
:1049300003602379C3F34110012839D0022845D000
:1049400068B9607903F01F0340EAC313B3F54870F8
:1049500044BF6FF44677D819374BC0101860237ADC
:10496000C3F3411001283FD002284CD068B9607AC7
:1049700003F01F0340EAC313B3F5487044BF6FF45C
:10498000467018182C4BC0101860A07A2B4B10F0F2
:10499000040F0CBF0524042410F0200F28481C70BD
:1049A00014BF042405244F0604707FF568AF64E744
:1049B000607903F01F0340EAC313B3F5487044BFA6
:1049C0006FF446769819C0101E4BC7E7607903F064
:1049D0001F0340EAC313B3F5487044BF6FF4467534
:1049E0005819C010184BB9E7607A03F01F0340EA6A
:1049F000C313B3F5487044BF6FF4467803EB080067
:104A0000C010104BC0E7607A03F01F0340EAC313E5
:104A1000B3F5487044BF6FF4467C03EB0C00C01044
:104A2000094BB1E79279094BBFE500BFACC4002048
:104A3000A8B4002084BC0020A4B400201ACA00201E
:104A40001BCA00209CB40020A0B40020F7C900209D
:104A50000C4970B500230C4D0B701C461A46DEB293
:104A6000B04207D82CB1FF2A08BFFE230A7008BF46
:104A70000B7070BD15F8014B2244D2B201330124F2
:104A8000EDE700BF91C900209CC9002070B51B4B09
:104A9000FF281A78194607D1012A05D001221A7079
:104AA000174B00221A7070BD012AFCD1144C154D11
:104AB0002278154BA85402B918701B7893420ED176
:104AC000104600260E70FFF7C3FF20780F4B2A5CBC
:104AD0001B789A420E4A06D11670FFF7ADFB237879
:104AE00001332370DFE713780133DBB2012B13703E
:104AF00081BF084B167002211970F0E794C900209D
:104B000090C900209CC9002093C9002091C90020B1
:104B100092C9002035CE002070B50024064E2346F1
:104B2000A5B2A94203D89B1A5842584170BD055DF1
:104B3000F35C01346B40F3E76C00002030B50022D9
:104B4000054D134694B2A14201D8184630BD845C8D
:104B5000EB5C01326340F5E76C000020F8B5A04C37
:104B6000637AA27A1B01DBB21A4309212046FFF7C0
:104B7000D3FF01289B4A40F04582002313706278DE
:104B8000A3782078984D03F00F0302F00F0203EB97
:104B90000212E37803F00F0303EB0213E27902F051
:104BA0001F01227A02F01F0202EB41128F4900F02E
:104BB0000F000A60092819D8DFE800F0053D4042DF
:104BC00044464B4D565B8A490B60297806290DD126
:104BD000884909688B42884921D100232B700B70CA
:104BE000864B1B78B3B9864B01211970617901F0AE
:104BF000F003302B01F00F0100F0E98043D8102BB7
:104C000000F08980202B00F0DF80002B42D17D4A0C
:104C100013703FE0012BE9D17B490B70E6E70B787D
:104C20000133DBB20B70032BE0D9734900232B70E7
:104C30000B70764BD8E776490B60D7E77549FBE7F1
:104C40007549F9E77549F7E775490B606F4B09211D
:104C5000CBE77449F0E76E490B602B78072B0BD13B
:104C600000232B706449D8E769490B602B78082B27
:104C7000F5E72B78092BF2E75F490B780133DBB2BC
:104C80000B70022BD0E7502B00F0DA803BD8402B82
:104C900000F0D4802978002900F0A681CB1F012BD9
:104CA00000F26681574B604D1B7894F806E094F84B
:104CB00007C0277A667AA27A022B4FF0FF0305F12C
:104CC00002002B706B7040F049814A4BA9701B6841
:104CD000C3F30321E970C3F30311297103F00F0338
:104CE0006B7185F806E085F807C02F726E72AA72A4
:104CF0000921FFF723FF0309EB7200F00F00FE23E9
:104D000028736B73F8BD602B00F0A780702BC1D1A6
:104D10003C4B07220FE03B4A012313700C29B9D802
:104D2000DFE801F0070B10161C22282E343A40460B
:104D30004C003E4B00221A70ACE73C4A1370334BD8
:104D40000A22F8E7394B02221A70304B0B22F2E7A5
:104D5000364B03221A702D4B0C22ECE7334B042206
:104D60001A702A4B0D22E6E7304B05221A70274BAA
:104D70000E22E0E72D4B06221A70244B0F22DAE7B1
:104D80002A4B07221A70214B1022D4E7274B082206
:104D90001A701E4B1122CEE7244B09221A701B4BAE
:104DA0001222C8E7214B0A221A70184B1322C2E7BD
:104DB0001E4B0B221A70154B1422BCE71B4B0C2206
:104DC0001A70124B1522B6E70E4B0222B3E70D4BB9
:104DD00003221A70094B1B7853BB094BABE700BF8A
:104DE000D1C90020D0C9002006CA002074C4002008
:104DF0005C00002060000020CFC9002034CA0020E1
:104E000009CA002019CA0020F2C9002035CE0020AE
:104E1000BCC40020A856002090C40020A05600204A
:104E2000A456002094C40020DFC9002011CA00202D
:104E3000012B7FF42FAF7A4B04227CE7794BFBE701
:104E4000784A05231370784A12780AB9774BF3E74A
:104E5000012A7FF41FAF724ADAE6724B06201870FF
:104E6000714B1B780BBB714B0520187001294ED07C
:104E70004EB2FEB102297FF40DAF6D4B0D201870BC
:104E80006C4B19706C4B012018706C4B18786C4B84
:104E900018706C4B1A706C4A002313706B4A1370B5
:104EA0006B4B197000F002FFF4E6012BDED15C4B76
:104EB0000720DAE75E4B674F1E705E4B03211970C7
:104EC0005E4B19785C4B19705D493B680B705D490E
:104ED0001B0A0B705C4B1A705F4B1A785B4B1A7095
:104EE0005B4B02221A7000F0E1FE5C4B5C4A1E70C4
:104EF0005C4B1B6813705C4A1B0A13703B685B4A6F
:104F000013705B4A1B0A137009F07AFFC2E6484B24
:104F1000504E00271F70474B03211970474B1978DB
:104F2000454B1970464933680B7046491B0A0B7094
:104F3000454B1A70484B1A78444B1A70444B022266
:104F40001A7000F0B3FE454B454A1F70454B1B6875
:104F50001370454A1B0A13703368D0E7A37843F0F7
:104F60004003AB70E378EB7023792B716379B7E67C
:104F700006291CD13F4DFF232B706B700023AB70B3
:104F80003D4B1B68C3F30322EA70C3F303122A717B
:104F900003F00F036B71A379AB71E379EB71237AA3
:104FA0002B72637A6B72A37AAB7209211AE009291A
:104FB0007FF4A8AE2F4DFF232B706B700023EB7096
:104FC0002B712E4BA9701B785A1E534253416B71A3
:104FD000A379AB71E379EB71237A2B72637A6B72ED
:104FE000A37AAB72A81C84E6224DFF232B706B7052
:104FF000A37843F04003AB70E378EB7023792B7117
:105000006379C7E713780133DBB2022B83BF002338
:1050100013701B4B137084BF01221A7072E600BF1D
:10502000F2C9002019CA002034CA002009CA002091
:1050300011CA002017CA002012CA0020B0010020A7
:1050400013CA002014CA002015CA002016CA002066
:1050500037CF0020A856002029CA002036CF0020D4
:1050600032CF00205C00002033CF002034CF00205E
:1050700035CF0020DFC900206000002007CA0020D3
:1050800035CE002070B4224B1B78013B012B0BD88E
:10509000204C21492278FF2825460FD10B7853EA6E
:1050A000020603D10123237070BC7047012A05D189
:1050B0003BBB0A70194A23701380F5E70ABB0B78D3
:1050C000012B1ED1154C164EB4F90030FE28F054B9
:1050D00003F101031BB2204607D10C2B05D12A7026
:1050E0000A70228070BCFFF739BD0B2BC1BF0023B3
:1050F00003802B700B70C9BF0A4B038001221A700A
:10510000D2E7064A002313802B700B70CCE700BF58
:105110006F010020EDC90020EEC9002072C90020F7
:10512000D1C9002035CE00202DE9F04F03F1540CF9
:105130004FF4A87402F1400E2D39DFF850B06143EE
:105140001FFA8EFE1FFA8CFC4FF400444FF4C8681F
:105150009C4501D8BDE8F08F164608FB030AB6450A
:1051600001D80133F4E70A9F3BF81150B946099F73
:105170002540002D18BFB94664082AF8169004BFD0
:1051800001314FF400440136E9E700BF622001001D
:105190002DE9F04720390E244C43DDE90867144916
:1051A00002F1100E03F10E0C1FFA8EFE1FFA8CFC9A
:1051B00001EB44014FF4C8699C4501D8BDE8F08774
:1051C000154609FB030A4FF40048AE4502D80133E7
:1051D0000231F1E70C8808EA0404002C0CBF3C46BD
:1051E00034462AF815404FEA58080135EDE700BF6C
:1051F0003A6901002DE9F74F253954244C431749EA
:10520000834602F120060C98019003F12A05B6B2FC
:10521000ADB201EB44014FF4C8689D4202D803B01F
:10522000BDE8F08F0C88B1F802E008FB03B94EEA44
:10523000044E4FF0004C1446A64202D8013304310C
:10524000EBE70D9F01981CEA0E0F0CBFBA46824691
:1052500029F814A04FEA5C0C0134EDE7225A010052
:10526000084A117953790A2203EB0123B3FBF2F3C5
:1052700058434B2390FBF2F058434FF47A7390FB62
:10528000F3F07047FAC90020034A136810B90133DC
:1052900013607047013BFBE7B8C4002038B51B4CD6
:1052A00094F88D3003F0FF022BB9194B1A70BDE84A
:1052B000384002F02DBDE37F5BB9154B01221A7017
:1052C00003F068F8134B5B7A012B01D184F863304B
:1052D00038BD94F8A93033B90D4B02221A70BDE8DD
:1052E000384003F027BC94F8723003F0FF05002B20
:1052F000EED1074B03221A7003F034FA054B5B79A9
:10530000012B08BF84F88450E2E700BF00C00840CA
:1053100023CA00206F010020F8B5A849A84B91F8D6
:105320006E201D78A74C2A4364D101221A70A3492C
:105330001D7891F892202A4372D102221A709F4957
:105340001D78CA7A2A4340F0818003221A709B4953
:105350001D7891F820202A4340F08E8004221A7094
:1053600096491D7891F86D202A4340F09C800522D3
:105370001A7092491D7891F8AA202A4340F0AA8019
:1053800006221A708D491D7891F89F202A4340F01B
:10539000B88007221A7089491D7891F86C202A4339
:1053A00040F0C68008221A7084491D7891F86D205B
:1053B0002A4340F0D48009221A7080491D7891F860
:1053C00085202A4340F0E2800A221A702378002BBD
:1053D00000F04981013B092B00F24581DFE813F021
:1053E000F6002B0136013E0144014A0161016801CA
:1053F0006B016F01012D9AD1734802780132D2B24C
:10540000027091F86E70064600212FB1022A03D96E
:105410000170197025708AE731701970217086E764
:10542000022D8CD1684802780132D2B2027091F814
:105430009270064600212FB1022A03D9017019701B
:1054400025707CE731701970217078E7032D7FF4A7
:105450007EAF5D4802780132D2B20270CF7A064642
:1054600000212FB1022A03D90170197025706EE74F
:105470003170197021706AE7042D7FF471AF5248C2
:1054800002780132D2B2027091F8207006460021F3
:105490002FB1022A03D901701970257060E73170AD
:1054A000197021705CE7052D7FF463AF46480278E0
:1054B0000132D2B2027091F86D70064600212FB110
:1054C000022A03D901701970257052E731701970E2
:1054D00021704EE7062D7FF455AF3B48027801322C
:1054E000D2B2027091F8AA70064600212FB1022AAA
:1054F00003D901701970257044E73170197021705B
:1055000040E7072D7FF447AF2F4802780132D2B22F
:10551000027091F89F70064600212FB1022A03D92C
:1055200001701970257036E731701970217032E7FB
:10553000082D7FF439AF244802780132D2B20270CC
:1055400091F86C70064600212FB1022A03D9017030
:105550001970257028E731701970217024E7092D22
:105560007FF42BAF184802780132D2B2027091F862
:105570006D70064600212FB1022A03D901701970FF
:1055800025701AE731701970217016E70A2D7FF423
:105590001DAF0D4802780132D2B2027091F88570C9
:1055A000064600212FB1022A03D901701970257017
:1055B0000CE731701970217008E700BF00C0084087
:1055C000F1C90020F0C90020EFC90020474A48492E
:1055D0001378097801335BB20129137017D145495B
:1055E000097811F0FD000CD10C2B01DD0C23137098
:1055F00092F90020404B53F82220404B1A600023C0
:1056000030E0012814D10C2BF2DD0623EFE702294C
:10561000EED13849097811F0FD0003D10F2BE7DDF9
:105620000F23E4E7012803D10C2BE1DD0723DEE79C
:105630000429DDD1E7E72D4B1A78013A52B2002A4E
:10564000B8BF00221A7093F90020D3E72C4B012237
:1056500083F84C202B4B08221A70D0E7284A0023ED
:1056600082F84C302370F8BD264B09221A70264B65
:105670000122F1E71E4BDB78012B07D1234A127878
:10568000012A234A08BF7F231370B8E7042BB6D141
:10569000204B1B78012B08BF0D221F4B18BF0A227D
:1056A000DAE7134B1B7A012BA9D103F0CBFBA6E75A
:1056B00009F05AF8A3E7194A00231370D2E7184BF0
:1056C0001A78062A9BD0174B05D8012A09D0052A3B
:1056D000CED10222C0E7172A05D0182AC8D1042249
:1056E000BAE70322B8E70522B6E700BFB001002001
:1056F0006F01002029CA0020D81F0100600000208F
:1057000000C0084006CA002034CE002022CA002073
:1057100004CA002021CA002003CA0020F4C90020C6
:1057200034CA002005CA0020082870B510D1564A96
:10573000517813789278A1F130000A214143303B2F
:105740006420303A00FB03131344504A136003E013
:10575000042802D028280ED070BD4B4B1A78392A65
:10576000FAD15A78392AF7D19B78392BF4D1484BA2
:105770000E221A70F0E7444BDA7A02EB82011A7BB0
:10578000103A02EB4102D2B2142A0FD8DFE802F03D
:105790000B0E140B0E0E171A1D202326292C2F3248
:1057A0000E0E0E3538003B4A002111705A78322A0D
:1057B00029D1384B0D22DCE7364A0D21F5E7354A71
:1057C0000121F2E7334A0221EFE7324A0321ECE7F5
:1057D000304A0421E9E72F4A0521E6E72D4A062150
:1057E000E3E72C4A0721E0E72A4A0821DDE7294AB6
:1057F0000921DAE7274A0A21D7E7264A0B21D4E70D
:10580000244A0C21D1E7D87B2F28A5D9997C2F29B0
:10581000A2D95A7D2F2A9FD91C7C642630380A25AC
:105820007043303C05FB0404587C303804441A486B
:105830000460D87C30397143303805FB0010197D85
:105840003039084415490860997D303A724330393F
:1058500005FB0121DA7D303A1144114A116093F8B9
:105860002010DA7F3039303A4E434FF47A7101FB21
:10587000026693F8212093F82230303A05FB026249
:10588000303B1344074A61E739CF00209C56002083
:1058900003CA00201FCA002088C4002080C4002042
:1058A00084C400207CC4002038B5134A1378154600
:1058B00023B902281BD10123137015E0012B16D147
:1058C0000E4C0F492378C8540133DBB20D282370E6
:1058D0000BD1194411F8021C032906D100251846E2
:1058E0001570FFF721FF257038BD632BFCD900230D
:1058F0002B70024AE0E700BF57CF002038CF0020CE
:1059000039CF002010B5264B264A197811709C78A3
:105910005A78D878244B25491870254B0A701B7883
:10592000244993420C70244A244911D10023137056
:10593000234B244A1B689C4216D100231370224B30
:10594000224A1B6898421BD1002313700B7010BDB4
:1059500013780133DBB2022B1370E9D900231370E3
:105960001B4B03221A70E3E713780133DBB2022BDF
:105970001370E4D900231370154B03221A70DEE76D
:1059800013780133DBB20120022B13700870DED9CB
:10599000002313700B700E4B03221A70D7E700BF61
:1059A00061CF002025CA00205ECF002060CF0020FC
:1059B00026CA00205FCF002058CF002028CA002030
:1059C0005800002059CF0020540000205ACF00205A
:1059D00035CE0020F0B5DFF8FCC0DFF8FCE0374F33
:1059E0009EF800109CF800303A7841EA0304144312
:1059F000654674463E4605D1FF2802D101238EF844
:105A00000030F0BD01290CD153EA020146D1012832
:105A100002D18CF80000F4E7002323702B70337060
:105A2000EFE7002A46D0002931D083B37AB3244F60
:105A300024493B78C8540133DBB2052B3B7025D198
:105A400048780B780344887808330344C878097988
:105A50000344DBB20022994222702A7032703A70FD
:105A6000194B1A490CD0012018700B780344DBB293
:105A7000022B01D80B70C4E70A70154B032217E004
:105A80001A700A70BDE8F040FFF73CBFB9D90C4A64
:105A9000002323702B7033701370B2E712B1002B08
:105AA000F5D0C4E7012BC0D10828B5D13B70044B19
:105AB0001A70A6E7012BB6D1E9E700BF6BCF002033
:105AC0005BCF002061CF00205CCF00205DCF0020A5
:105AD00035CE00206ACF002069CF0020404B1A78D5
